{
  "address": "0x7d4d84152aAcEAE2c5347A13d652e83528caa586",
  "abi": [
    {
      "inputs": [
        {
          "internalType": "address",
          "name": "_feeRecipient",
          "type": "address"
        }
      ],
      "stateMutability": "nonpayable",
      "type": "constructor"
    },
    {
      "inputs": [],
      "name": "ReentrancyGuardReentrantCall",
      "type": "error"
    },
    {
      "anonymous": false,
      "inputs": [
        {
          "indexed": true,
          "internalType": "address",
          "name": "owner",
          "type": "address"
        },
        {
          "indexed": true,
          "internalType": "address",
          "name": "spender",
          "type": "address"
        },
        {
          "indexed": false,
          "internalType": "uint256",
          "name": "value",
          "type": "uint256"
        }
      ],
      "name": "Approval",
      "type": "event"
    },
    {
      "anonymous": false,
      "inputs": [
        {
          "indexed": true,
          "internalType": "address",
          "name": "delegator",
          "type": "address"
        },
        {
          "indexed": true,
          "internalType": "address",
          "name": "fromDelegate",
          "type": "address"
        },
        {
          "indexed": true,
          "internalType": "address",
          "name": "toDelegate",
          "type": "address"
        }
      ],
      "name": "DelegateChanged",
      "type": "event"
    },
    {
      "anonymous": false,
      "inputs": [
        {
          "indexed": true,
          "internalType": "address",
          "name": "delegate",
          "type": "address"
        },
        {
          "indexed": false,
          "internalType": "uint256",
          "name": "previousVotes",
          "type": "uint256"
        },
        {
          "indexed": false,
          "internalType": "uint256",
          "name": "newVotes",
          "type": "uint256"
        }
      ],
      "name": "DelegateVotesChanged",
      "type": "event"
    },
    {
      "anonymous": false,
      "inputs": [
        {
          "indexed": true,
          "internalType": "uint256",
          "name": "genesisID",
          "type": "uint256"
        }
      ],
      "name": "GenesisSucceeded",
      "type": "event"
    },
    {
      "anonymous": false,
      "inputs": [
        {
          "indexed": false,
          "internalType": "uint256",
          "name": "tokenA",
          "type": "uint256"
        },
        {
          "indexed": false,
          "internalType": "uint256",
          "name": "tokenB",
          "type": "uint256"
        },
        {
          "indexed": false,
          "internalType": "uint256",
          "name": "lpToken",
          "type": "uint256"
        }
      ],
      "name": "InitialLiquidityAdded",
      "type": "event"
    },
    {
      "anonymous": false,
      "inputs": [
        {
          "indexed": false,
          "internalType": "uint64",
          "name": "version",
          "type": "uint64"
        }
      ],
      "name": "Initialized",
      "type": "event"
    },
    {
      "anonymous": false,
      "inputs": [
        {
          "indexed": false,
          "internalType": "address",
          "name": "addedPool",
          "type": "address"
        }
      ],
      "name": "LiquidityPoolCreated",
      "type": "event"
    },
    {
      "anonymous": false,
      "inputs": [
        {
          "indexed": false,
          "internalType": "uint256",
          "name": "_tokenId",
          "type": "uint256"
        }
      ],
      "name": "MetadataUpdate",
      "type": "event"
    },
    {
      "anonymous": false,
      "inputs": [
        {
          "indexed": true,
          "internalType": "address",
          "name": "sender",
          "type": "address"
        },
        {
          "indexed": false,
          "internalType": "uint256",
          "name": "amount0",
          "type": "uint256"
        },
        {
          "indexed": false,
          "internalType": "uint256",
          "name": "amount1",
          "type": "uint256"
        }
      ],
      "name": "Mint",
      "type": "event"
    },
    {
      "anonymous": false,
      "inputs": [
        {
          "indexed": false,
          "internalType": "uint256",
          "name": "id",
          "type": "uint256"
        }
      ],
      "name": "NewApplication",
      "type": "event"
    },
    {
      "anonymous": false,
      "inputs": [
        {
          "indexed": false,
          "internalType": "uint256",
          "name": "virtualId",
          "type": "uint256"
        },
        {
          "indexed": false,
          "internalType": "address",
          "name": "token",
          "type": "address"
        },
        {
          "indexed": false,
          "internalType": "address",
          "name": "dao",
          "type": "address"
        },
        {
          "indexed": false,
          "internalType": "address",
          "name": "tba",
          "type": "address"
        },
        {
          "indexed": false,
          "internalType": "address",
          "name": "veToken",
          "type": "address"
        },
        {
          "indexed": false,
          "internalType": "address",
          "name": "lp",
          "type": "address"
        }
      ],
      "name": "NewPersona",
      "type": "event"
    },
    {
      "anonymous": false,
      "inputs": [
        {
          "indexed": false,
          "internalType": "uint256",
          "name": "virtualId",
          "type": "uint256"
        },
        {
          "indexed": false,
          "internalType": "address",
          "name": "account",
          "type": "address"
        }
      ],
      "name": "NewValidator",
      "type": "event"
    },
    {
      "anonymous": false,
      "inputs": [
        {
          "indexed": true,
          "internalType": "address",
          "name": "previousOwner",
          "type": "address"
        },
        {
          "indexed": true,
          "internalType": "address",
          "name": "newOwner",
          "type": "address"
        }
      ],
      "name": "OwnershipTransferred",
      "type": "event"
    },
    {
      "anonymous": false,
      "inputs": [
        {
          "indexed": true,
          "internalType": "address",
          "name": "token0",
          "type": "address"
        },
        {
          "indexed": true,
          "internalType": "address",
          "name": "token1",
          "type": "address"
        },
        {
          "indexed": false,
          "internalType": "address",
          "name": "pair",
          "type": "address"
        },
        {
          "indexed": false,
          "internalType": "uint256",
          "name": "",
          "type": "uint256"
        }
      ],
      "name": "PairCreated",
      "type": "event"
    },
    {
      "anonymous": false,
      "inputs": [
        {
          "indexed": false,
          "internalType": "uint256",
          "name": "oldProposalThreshold",
          "type": "uint256"
        },
        {
          "indexed": false,
          "internalType": "uint256",
          "name": "newProposalThreshold",
          "type": "uint256"
        }
      ],
      "name": "ProposalThresholdSet",
      "type": "event"
    },
    {
      "anonymous": false,
      "inputs": [
        {
          "indexed": false,
          "internalType": "uint256",
          "name": "oldQuorumNumerator",
          "type": "uint256"
        },
        {
          "indexed": false,
          "internalType": "uint256",
          "name": "newQuorumNumerator",
          "type": "uint256"
        }
      ],
      "name": "QuorumNumeratorUpdated",
      "type": "event"
    },
    {
      "anonymous": false,
      "inputs": [
        {
          "indexed": false,
          "internalType": "uint112",
          "name": "reserve0",
          "type": "uint112"
        },
        {
          "indexed": false,
          "internalType": "uint112",
          "name": "reserve1",
          "type": "uint112"
        }
      ],
      "name": "Sync",
      "type": "event"
    },
    {
      "anonymous": false,
      "inputs": [
        {
          "indexed": true,
          "internalType": "address",
          "name": "tokenAddress",
          "type": "address"
        },
        {
          "indexed": true,
          "internalType": "address",
          "name": "creator",
          "type": "address"
        },
        {
          "indexed": false,
          "internalType": "string",
          "name": "name",
          "type": "string"
        },
        {
          "indexed": false,
          "internalType": "string",
          "name": "symbol",
          "type": "string"
        },
        {
          "indexed": false,
          "internalType": "uint256",
          "name": "totalSupply",
          "type": "uint256"
        },
        {
          "indexed": false,
          "internalType": "uint256",
          "name": "price",
          "type": "uint256"
        }
      ],
      "name": "TokenCreated",
      "type": "event"
    },
    {
      "anonymous": false,
      "inputs": [
        {
          "indexed": true,
          "internalType": "address",
          "name": "buyer",
          "type": "address"
        },
        {
          "indexed": true,
          "internalType": "address",
          "name": "tokenAddress",
          "type": "address"
        },
        {
          "indexed": false,
          "internalType": "uint256",
          "name": "amount",
          "type": "uint256"
        },
        {
          "indexed": false,
          "internalType": "uint256",
          "name": "cost",
          "type": "uint256"
        }
      ],
      "name": "TokenPurchased",
      "type": "event"
    },
    {
      "anonymous": false,
      "inputs": [
        {
          "indexed": true,
          "internalType": "address",
          "name": "from",
          "type": "address"
        },
        {
          "indexed": true,
          "internalType": "address",
          "name": "to",
          "type": "address"
        },
        {
          "indexed": false,
          "internalType": "uint256",
          "name": "value",
          "type": "uint256"
        }
      ],
      "name": "Transfer",
      "type": "event"
    },
    {
      "anonymous": false,
      "inputs": [
        {
          "indexed": false,
          "internalType": "uint256",
          "name": "oldVotingDelay",
          "type": "uint256"
        },
        {
          "indexed": false,
          "internalType": "uint256",
          "name": "newVotingDelay",
          "type": "uint256"
        }
      ],
      "name": "VotingDelaySet",
      "type": "event"
    },
    {
      "anonymous": false,
      "inputs": [
        {
          "indexed": false,
          "internalType": "uint256",
          "name": "oldVotingPeriod",
          "type": "uint256"
        },
        {
          "indexed": false,
          "internalType": "uint256",
          "name": "newVotingPeriod",
          "type": "uint256"
        }
      ],
      "name": "VotingPeriodSet",
      "type": "event"
    },
    {
      "inputs": [
        {
          "internalType": "uint256",
          "name": "",
          "type": "uint256"
        }
      ],
      "name": "allTokens",
      "outputs": [
        {
          "internalType": "address",
          "name": "",
          "type": "address"
        }
      ],
      "stateMutability": "view",
      "type": "function"
    },
    {
      "inputs": [
        {
          "internalType": "string",
          "name": "name",
          "type": "string"
        },
        {
          "internalType": "string",
          "name": "symbol",
          "type": "string"
        },
        {
          "internalType": "uint256",
          "name": "totalSupply",
          "type": "uint256"
        },
        {
          "internalType": "uint256",
          "name": "price",
          "type": "uint256"
        },
        {
          "internalType": "uint256",
          "name": "allocatedForSale",
          "type": "uint256"
        }
      ],
      "name": "createToken",
      "outputs": [
        {
          "internalType": "address",
          "name": "tokenAddress",
          "type": "address"
        }
      ],
      "stateMutability": "nonpayable",
      "type": "function"
    },
    {
      "inputs": [],
      "name": "feeRecipient",
      "outputs": [
        {
          "internalType": "address",
          "name": "",
          "type": "address"
        }
      ],
      "stateMutability": "view",
      "type": "function"
    },
    {
      "inputs": [],
      "name": "getTokenCount",
      "outputs": [
        {
          "internalType": "uint256",
          "name": "",
          "type": "uint256"
        }
      ],
      "stateMutability": "view",
      "type": "function"
    },
    {
      "inputs": [],
      "name": "platformFeePercent",
      "outputs": [
        {
          "internalType": "uint256",
          "name": "",
          "type": "uint256"
        }
      ],
      "stateMutability": "view",
      "type": "function"
    },
    {
      "inputs": [
        {
          "internalType": "address",
          "name": "tokenAddress",
          "type": "address"
        },
        {
          "internalType": "uint256",
          "name": "amount",
          "type": "uint256"
        }
      ],
      "name": "purchaseTokens",
      "outputs": [],
      "stateMutability": "payable",
      "type": "function"
    },
    {
      "inputs": [
        {
          "internalType": "address",
          "name": "tokenAddress",
          "type": "address"
        },
        {
          "internalType": "bool",
          "name": "isActive",
          "type": "bool"
        }
      ],
      "name": "setTokenActive",
      "outputs": [],
      "stateMutability": "nonpayable",
      "type": "function"
    },
    {
      "inputs": [
        {
          "internalType": "address",
          "name": "",
          "type": "address"
        }
      ],
      "name": "tokens",
      "outputs": [
        {
          "internalType": "address",
          "name": "tokenAddress",
          "type": "address"
        },
        {
          "internalType": "address",
          "name": "creator",
          "type": "address"
        },
        {
          "internalType": "uint256",
          "name": "price",
          "type": "uint256"
        },
        {
          "internalType": "uint256",
          "name": "availableSupply",
          "type": "uint256"
        },
        {
          "internalType": "bool",
          "name": "isActive",
          "type": "bool"
        }
      ],
      "stateMutability": "view",
      "type": "function"
    },
    {
      "inputs": [
        {
          "internalType": "address",
          "name": "tokenAddress",
          "type": "address"
        },
        {
          "internalType": "uint256",
          "name": "newPrice",
          "type": "uint256"
        }
      ],
      "name": "updateTokenPrice",
      "outputs": [],
      "stateMutability": "nonpayable",
      "type": "function"
    }
  ],
  "transactionHash": "0xe85b03dd07e98614457e95fa7ddbbb946751d61533ce1524afafb10ca729cc34",
  "args": [
    "0x4cacfA4B61105852580BA184b6466FD9952654ce"
  ],
  "numDeployments": 2,
  "solcInputHash": "f8b5ddf1a0bcbb2e2be29501add04078",
  "bytecode": "0x6080346100da57601f61237238819003918201601f19168301916001600160401b038311848410176100df578084926020946040528339810103126100da57516001600160a01b038116908190036100da576001600055600060035560fa600455801561008957600580546001600160a01b03191691909117905560405161227c90816100f68239f35b60405162461bcd60e51b8152602060048201526024808201527f46656520726563697069656e742063616e6e6f74206265207a65726f206164646044820152637265737360e01b6064820152608490fd5b600080fd5b634e487b7160e01b600052604160045260246000fdfe608060405260043610156200001357600080fd5b60003560e01c806322ea22311462000f3d578063469048401462000f12578063634282af1462000ecb57806378a895671462000eab5780638c639a851462000e8b578063d4ee651b1462000dec578063e2f1b7921462000d3d578063e48603391462000cca5763f0d02ec3146200008957600080fd5b3462000cc55760a036600319011262000cc55767ffffffffffffffff60043581811162000cc557620000c0903690600401620013e6565b90602491823582811162000cc557620000de903690600401620013e6565b6064359060843593620000f06200152f565b83511562000c8a5781511562000c4d576044351562000bfd5762000116831515620014a0565b8415158062000bf0575b1562000b9557604051610cb38082018281108482111762000b8057829162001554833960808152620001696200015a6080830189620014ed565b828103602084015286620014ed565b90604435604082015260603391015203906000f094851562000b7457620001966127109160443562001433565b046040519060a08201928284109084111762000b5f57620002589260405260018060a01b038716825233602083015284604083015260608201526001608082015260018060a01b03861660005260016020526004608060406000209260018060a01b038151166bffffffffffffffffffffffff60a01b9081865416178555600185019060018060a01b036020840151169082541617905560408101516002850155606081015160038501550151151591019060ff801983541691151516179055565b600254906801000000000000000082101562000b4a5762000284826001620002c8940160025562001342565b81546001600160a01b0388811660039390931b92831b921b191617905560405160808082529094620002b991860190620014ed565b908482036020860152620014ed565b90604435604084015260608301527fc12630d761ddbf18b9530f31d91e67493535a2b635711bcff59fded8bf381cce33928060018060a01b038616930390a360035491600019831462000b3657506001602092016003557371b8efc8bcad65a5d9386d07f2dff57ab4eaf5336040516908fbdd25d2b76b440000815260008051602062002227833981519152843392a37371b8efc8bcad65a5d9386d07f2dff57ab4eaf5336040516000815260008051602062002227833981519152843392a37371b8efc8bcad65a5d9386d07f2dff57ab4eaf5336040516908fbdd25d2b76b440000815260008051602062002207833981519152843392a37f0ff47c4a3dc48719ecfd1876116e80d7d76ec7cb67248ae49449f9104747af29826040516402540be5838152a1739a574ea719b5e69df7c783d15c9514a26f3faf536000600080516020620022078339815191528460405173e220329659d41b2a9f26e83816b424bdacf62567847f8be0079c531659141344cd1fd0a4f28419497f9722a3daafe3b4186f6b6457e08180a36a6765c793fa10079d0000008152a36040516b02d3c8750bd670354b0000008152600060008051602062002207833981519152843393a36040805173834792a20684ebfcf94513a40631f477495ce8568152621548a884820152739a574ea719b5e69df7c783d15c9514a26f3faf53916001600160a01b038416917f0d3648bd0f6ba80134a33ba9275ac585d9d315f0ad8355cddefde31afa28d0e99190a37f969ffc8569f9af3993220e04ac05164e5db4e3d9f8b1a47f64e7de9a04b8ea2f8260405173834792a20684ebfcf94513a40631f477495ce8568152a17ff9d151d23a5253296eb20ab40959cf48828ea2732d337416716e302ed83ca65860c08380604051600181527fc7f505b2f371ae2175ee4913f4499e1f2633a7b5936321eed1cdaeb6115181d2918291a1739a574ea719b5e69df7c783d15c9514a26f3faf537371b8efc8bcad65a5d9386d07f2dff57ab4eaf53360008051602062002207833981519152846040516908fbdd25d2b76b4400008152a36040516000198152739a574ea719b5e69df7c783d15c9514a26f3faf5360008051602062002227833981519152734752ba5dbc23f44d87826276bf6fd6b1c372ad24948593a381739a574ea719b5e69df7c783d15c9514a26f3faf5360008051602062002227833981519152886040516000198152a373834792a20684ebfcf94513a40631f477495ce856739a574ea719b5e69df7c783d15c9514a26f3faf5360008051602062002207833981519152886040516a6765c793fa10079d0000008152a373834792a20684ebfcf94513a40631f477495ce856739a574ea719b5e69df7c783d15c9514a26f3faf5360008051602062002207833981519152886040516908fbdd25d2b76b4400008152a360008060008051602062002207833981519152886040516103e88152a360405191739a574ea719b5e69df7c783d15c9514a26f3faf53600060008051602062002207833981519152896a01e7a5d46057e89a78903296878152a37f1c411e9a96e071241c2f21f7726b17ae89e3cab4c78be50e062b03a9fffbbad1604080516908fbdd25d2b76b44000081526a6765c793fa10079d0000008a820152a17f4c209b5fc8ad50758f13e2e1088ba56a560dff690a1c6fef26394f4c03821c4f604080516908fbdd25d2b76b44000081526a6765c793fa10079d0000008a820152a27fbf59dda00152e02f20e18cab7307c8afe0714e7f69cf24a1377cbbddcb40f9bb60606040516a6765c793fa10079d00000081526908fbdd25d2b76b44000089820152846040820152a17371b8efc8bcad65a5d9386d07f2dff57ab4eaf533739a574ea719b5e69df7c783d15c9514a26f3faf536000805160206200220783398151915288604051868152a3808660405160018152a17fc565b045403dc03c2eea82b81a0465edad9e2e7fc4d97e11421c209da93d7a936040805160008152600089820152a17f7e3f7f0708a84de9203036abaa450dccc85ad5ff52f78c170f3edb55cf5e882860408051600081526203f48089820152a17fccb45da8d5717e6c4544694297c4ba5cf151d455c9bb0ed4fc7a38411bc054616040805160008152600089820152a17f0553476bf02ef2726e8ce5ced78d63e26e602e4a2257b1f559418e24b463399760408051600081526113ec89820152a18560405160018152a18460007fdec2bacdd2f05b59de34da9b523dff8be42e5e38e818c82fdb0bae774387a7246040805194731764d9440bd7d2b96f90afae29c12198399adb098460008051602062002207833981519152876103c0998a8152a37ff8e1a15aba9398e019f0b49df1a4fde98ee17ae345cb5f6b5e2c27f5033e8ce7858351888152a18151908682527fcbde0481b37e4b90d96b4492b49bcd7b48b260233519b878611a16a184b071aa8373524a7371b0ee8e188dc71d8cd1fbf902a2764dd4938489820152a182518181527371b8efc8bcad65a5d9386d07f2dff57ab4eaf53360008051602062002207833981519152739f6907b029726d80360a9ae5efa5a13034783236988993a38185600080516020620022078339815191528d8651858152a38251917381f7ca6af86d1ca6335e44a2c28bc888074914159586917f3134e8a2e6d97e929a7e54011ea5485d7d196dd5f0ba4d4ef95803e8e3fc257f8280a4600082528a820152a2604051918252739a574ea719b5e69df7c783d15c9514a26f3faf538683015273d34ed132908aa0411e5509db6cc67e383daeeb666040830152738e9445eb0716d88c7944afe6b63022c1984272576060830152608082015273834792a20684ebfcf94513a40631f477495ce85660a0820152a16040519060197f6d06bb775ac05411c90dc9e1c4bd9a325534cd1f73e434866aea631283294ab2600080a260016000556001600160a01b03168152f35b634e487b7160e01b60009081526011600452fd5b85634e487b7160e01b60005260416004526000fd5b87634e487b7160e01b60005260416004526000fd5b6040513d6000823e3d90fd5b88634e487b7160e01b60005260416004526000fd5b60405162461bcd60e51b815260206004820152602e818801527f416c6c6f636174656420666f722073616c65206d75737420626520626574776560448201526d656e20302520616e64203130302560901b6064820152608490fd5b5061271085111562000120565b60405162461bcd60e51b8152602060048201526023818801527f546f74616c20737570706c79206d75737420626520677265617465722074686160448201526206e20360ec1b6064820152608490fd5b60405162461bcd60e51b8152602060048201526016818801527553796d626f6c2063616e6e6f7420626520656d70747960501b6044820152606490fd5b60405162461bcd60e51b815260206004820152601481880152734e616d652063616e6e6f7420626520656d70747960601b6044820152606490fd5b600080fd5b3462000cc557602036600319011262000cc55760a06001600160a01b038062000cf26200132b565b1660005260016020526040600020818154169160018201541690600281015460ff60046003840154930154169260405194855260208501526040840152606083015215156080820152f35b3462000cc557604036600319011262000cc55762000d5a6200132b565b602435801515810362000cc55760018060a01b038092166000526001602052604060002091600183015416330362000da757600462000da592019060ff801983541691151516179055565b005b60405162461bcd60e51b815260206004820152601e60248201527f4f6e6c792063726561746f722063616e207570646174652073746174757300006044820152606490fd5b3462000cc557604036600319011262000cc55762000e096200132b565b6024359060018060a01b038091166000526001602052604060002090600182015416330362000e465760029062000e42831515620014a0565b0155005b60405162461bcd60e51b815260206004820152601d60248201527f4f6e6c792063726561746f722063616e207570646174652070726963650000006044820152606490fd5b3462000cc557600036600319011262000cc5576020600454604051908152f35b3462000cc557600036600319011262000cc5576020600254604051908152f35b3462000cc557602036600319011262000cc55760043560025481101562000cc55762000ef960209162001342565b905460405160039290921b1c6001600160a01b03168152f35b3462000cc557600036600319011262000cc5576005546040516001600160a01b039091168152602090f35b604036600319011262000cc55762000f546200132b565b60249081359062000f646200152f565b60018060a01b0380911692836000526020906001825260406000209260ff60048501541615620012f1578415620012ad57600384019081548611620012695762000fb360028601548762001433565b948534106200122d5761271062000fcd6004548862001433565b0492600162000fdd85896200145d565b920180546040516323b872dd60e01b815290851660048201523387820152604481018a9052909190878160648160008f5af190811562000b7457600091620011f0575b5015620011b45760008093858294846200103d8e8697546200145d565b905554165af16200104d6200146b565b5015620011705760008080938193600554165af16200106b6200146b565b501562001121576200107e83346200145d565b80620010bd575b50506040519283528201527f8daf503382665d950e449b86172be5222275c90f4ddf69c29fdaa8237a562a6d60403392a36001600055005b600080808093335af1620010d06200146b565b5015620010de578062001085565b90601b6064926040519262461bcd60e51b845260048401528201527f4661696c656420746f20726566756e64206578636573732045544800000000006044820152fd5b9060236084926040519262461bcd60e51b845260048401528201527f4661696c656420746f2073656e642045544820746f2066656520726563697069604482015262195b9d60ea1b6064820152fd5b60405162461bcd60e51b815260048101859052601d818501527f4661696c656420746f2073656e642045544820746f2063726561746f720000006044820152606490fd5b60405162461bcd60e51b81526004810188905260158188015274151bdad95b881d1c985b9cd9995c8819985a5b1959605a1b6044820152606490fd5b90508781813d831162001225575b6200120a818362001390565b8101031262000cc55751801515810362000cc5578b62001020565b503d620011fe565b60405162461bcd60e51b81526004810186905260158186015274125b9cdd59999a58da595b9d08115512081cd95b9d605a1b6044820152606490fd5b60405162461bcd60e51b815260048101859052601b818501527f4e6f7420656e6f75676820746f6b656e7320617661696c61626c6500000000006044820152606490fd5b60405162461bcd60e51b815260048101849052601d818401527f416d6f756e74206d7573742062652067726561746572207468616e20300000006044820152606490fd5b60405162461bcd60e51b81526004810184905260138184015272546f6b656e206973206e6f742061637469766560681b6044820152606490fd5b600435906001600160a01b038216820362000cc557565b6002548110156200137a5760026000527f405787fa12a823e0f2b7631cc41b3ba8828b3321ca811111fa75cd3aa3bb5ace0190600090565b634e487b7160e01b600052603260045260246000fd5b90601f8019910116810190811067ffffffffffffffff821117620013b357604052565b634e487b7160e01b600052604160045260246000fd5b67ffffffffffffffff8111620013b357601f01601f191660200190565b81601f8201121562000cc5578035906200140082620013c9565b9262001410604051948562001390565b8284526020838301011162000cc557816000926020809301838601378301015290565b818102929181159184041417156200144757565b634e487b7160e01b600052601160045260246000fd5b919082039182116200144757565b3d156200149b573d906200147f82620013c9565b916200148f604051938462001390565b82523d6000602084013e565b606090565b15620014a857565b60405162461bcd60e51b815260206004820152601c60248201527f5072696365206d7573742062652067726561746572207468616e2030000000006044820152606490fd5b919082519283825260005b8481106200151a575050826000602080949584010152601f8019910116010190565b602081830181015184830182015201620014f8565b60026000541462001541576002600055565b604051633ee5aeb560e01b8152600490fdfe60406080815234620003f45762000cb3803803806200001e81620003f9565b9283398101608082820312620003f45781516001600160401b039290838111620003f45782620000509183016200041f565b926020928383015190828211620003f4576200006e9184016200041f565b906060868401519301519460018060a01b0391828716809703620003f4578151818111620002f4576003908154906001948583811c93168015620003e9575b8a841014620003d3578190601f938481116200037d575b508a9084831160011462000316576000926200030a575b505060001982851b1c191690851b1782555b8551928311620002f45760049586548581811c91168015620002e9575b8a821014620002d45782811162000289575b50889184116001146200021e5793839491849260009562000212575b50501b92600019911b1c19161782555b8415620001fb57600580546001600160a01b0319811687179091558591167f8be0079c531659141344cd1fd0a4f28419497f9722a3daafe3b4186f6b6457e0600080a360025490828201809211620001e6575060025560008381528083528481208054830190558451918252917fddf252ad1be2c89b69c2b068fc378daa952ba7f163c4a11628f55a4df523b3ef91a3516108219081620004928239f35b601190634e487b7160e01b6000525260246000fd5b8551631e4fbdf760e01b8152600081840152602490fd5b01519350388062000138565b9190601f1984169287600052848a6000209460005b8c8983831062000271575050501062000256575b50505050811b01825562000148565b01519060f884600019921b161c191690553880808062000247565b86860151895590970196948501948893500162000233565b87600052896000208380870160051c8201928c8810620002ca575b0160051c019086905b828110620002bd5750506200011c565b60008155018690620002ad565b92508192620002a4565b602288634e487b7160e01b6000525260246000fd5b90607f16906200010a565b634e487b7160e01b600052604160045260246000fd5b015190503880620000db565b60008681528c8120899550929190601f198516908e5b8282106200036557505084116200034c575b505050811b018255620000ed565b015160001983871b60f8161c191690553880806200033e565b8385015186558b979095019493840193018e6200032c565b909150846000528a6000208480850160051c8201928d8610620003c9575b918991869594930160051c01915b828110620003b9575050620000c4565b60008155859450899101620003a9565b925081926200039b565b634e487b7160e01b600052602260045260246000fd5b92607f1692620000ad565b600080fd5b6040519190601f01601f191682016001600160401b03811183821017620002f457604052565b919080601f84011215620003f45782516001600160401b038111620002f45760209062000455601f8201601f19168301620003f9565b92818452828287010111620003f45760005b8181106200047d57508260009394955001015290565b85810183015184820184015282016200046756fe6080604081815260048036101561001557600080fd5b600092833560e01c90816306fdde031461057057508063095ea7b3146104c757806318160ddd146104a857806323b872dd146103b5578063313ce5671461039957806370a0823114610362578063715018a6146103025780638da5cb5b146102d957806395d89b41146101b7578063a9059cbb14610186578063dd62ed3e146101395763f2fde38b146100a757600080fd5b34610135576020366003190112610135576100c06106b0565b906100c96107bf565b6001600160a01b0391821692831561011f575050600554826bffffffffffffffffffffffff60a01b821617600555167f8be0079c531659141344cd1fd0a4f28419497f9722a3daafe3b4186f6b6457e08380a380f35b51631e4fbdf760e01b8152908101849052602490fd5b8280fd5b505034610182578060031936011261018257806020926101576106b0565b61015f6106cb565b6001600160a01b0391821683526001865283832091168252845220549051908152f35b5080fd5b5050346101825780600319360112610182576020906101b06101a66106b0565b60243590336106e1565b5160018152f35b5091903461018257816003193601126101825780519082845460018160011c90600183169283156102cf575b60209384841081146102bc578388529081156102a0575060011461024b575b505050829003601f01601f191682019267ffffffffffffffff8411838510176102385750829182610234925282610667565b0390f35b634e487b7160e01b815260418552602490fd5b8787529192508591837f8a35acfbc15ff81a39ae7d344fd709f28e8600b4aa8c65c6b64bfe7fe36bd19b5b83851061028c5750505050830101388080610202565b805488860183015293019284908201610276565b60ff1916878501525050151560051b8401019050388080610202565b634e487b7160e01b895260228a52602489fd5b91607f16916101e3565b50503461018257816003193601126101825760055490516001600160a01b039091168152602090f35b833461035f578060031936011261035f5761031b6107bf565b600580546001600160a01b0319811690915581906001600160a01b03167f8be0079c531659141344cd1fd0a4f28419497f9722a3daafe3b4186f6b6457e08280a380f35b80fd5b5050346101825760203660031901126101825760209181906001600160a01b0361038a6106b0565b16815280845220549051908152f35b5050346101825781600319360112610182576020905160128152f35b50823461035f57606036600319011261035f576103d06106b0565b6103d86106cb565b916044359360018060a01b038316808352600160205286832033845260205286832054916000198310610414575b6020886101b08989896106e1565b86831061047c57811561046557331561044e575082526001602090815286832033845281529186902090859003905582906101b087610406565b8751634a1406b160e11b8152908101849052602490fd5b875163e602df0560e01b8152908101849052602490fd5b8751637dc7a0d960e11b8152339181019182526020820193909352604081018790528291506060010390fd5b5050346101825781600319360112610182576020906002549051908152f35b50346101355781600319360112610135576104e06106b0565b602435903315610559576001600160a01b031691821561054257508083602095338152600187528181208582528752205582519081527f8c5be1e5ebec7d5bd14f71427d1e84f3dd0314c0f7b2291e5b200ac8c7c3b925843392a35160018152f35b8351634a1406b160e11b8152908101859052602490fd5b835163e602df0560e01b8152808401869052602490fd5b84915083346101355782600319360112610135578260035460018160011c906001831692831561065d575b60209384841081146102bc5783885290811561064157506001146105eb57505050829003601f01601f191682019267ffffffffffffffff8411838510176102385750829182610234925282610667565b600387529192508591837fc2575a0e9e593c00f959f8c92f12db2869c3395a3b0502d05e2516446f71f85b5b83851061062d5750505050830101858080610202565b805488860183015293019284908201610617565b60ff1916878501525050151560051b8401019050858080610202565b91607f169161059b565b6020808252825181830181905290939260005b82811061069c57505060409293506000838284010152601f8019910116010190565b81810186015184820160400152850161067a565b600435906001600160a01b03821682036106c657565b600080fd5b602435906001600160a01b03821682036106c657565b916001600160a01b038084169283156107a6571692831561078d576000908382528160205260408220549083821061075b575091604082827fddf252ad1be2c89b69c2b068fc378daa952ba7f163c4a11628f55a4df523b3ef958760209652828652038282205586815220818154019055604051908152a3565b60405163391434e360e21b81526001600160a01b03919091166004820152602481019190915260448101839052606490fd5b60405163ec442f0560e01b815260006004820152602490fd5b604051634b637e8f60e11b815260006004820152602490fd5b6005546001600160a01b031633036107d357565b60405163118cdaa760e01b8152336004820152602490fdfea2646970667358221220a58ac039475e17667943cbfa08b26d5c46629046ea3a52ab9e6e3539863438c764736f6c63430008170033ddf252ad1be2c89b69c2b068fc378daa952ba7f163c4a11628f55a4df523b3ef8c5be1e5ebec7d5bd14f71427d1e84f3dd0314c0f7b2291e5b200ac8c7c3b925a2646970667358221220f582046ff768139711f39ee0b87dfeeb058175fc3ae29eaebff70d928680a40d64736f6c63430008170033",
  "devdoc": {
    "details": "Contract for creating and selling new tokens",
    "errors": {
      "ReentrancyGuardReentrantCall()": [
        {
          "details": "Unauthorized reentrant call."
        }
      ]
    },
    "kind": "dev",
    "methods": {
      "createToken(string,string,uint256,uint256,uint256)": {
        "details": "Creates a new token with the specified parameters",
        "params": {
          "allocatedForSale": "Percentage of total supply allocated for sale (in basis points, e.g., 5000 = 50%)",
          "name": "Name of the token",
          "price": "Price in wei per token",
          "symbol": "Symbol of the token",
          "totalSupply": "Total supply of the token"
        },
        "returns": {
          "tokenAddress": "Address of the created token"
        }
      },
      "getTokenCount()": {
        "details": "Returns the number of tokens created through the launchpad"
      },
      "purchaseTokens(address,uint256)": {
        "details": "Allows users to purchase tokens with ETH",
        "params": {
          "amount": "Amount of tokens to purchase",
          "tokenAddress": "Address of the token to purchase"
        }
      },
      "setTokenActive(address,bool)": {
        "details": "Allows token creator to activate/deactivate token sales",
        "params": {
          "isActive": "Whether the token should be active for sales",
          "tokenAddress": "Address of the token"
        }
      },
      "updateTokenPrice(address,uint256)": {
        "details": "Allows token creator to update token price",
        "params": {
          "newPrice": "New price in wei per token",
          "tokenAddress": "Address of the token"
        }
      }
    },
    "title": "TokenLaunchpad",
    "version": 1
  },
  "userdoc": {
    "kind": "user",
    "methods": {},
    "version": 1
  },
  "storageLayout": {
    "storage": [
      {
        "astId": 944,
        "contract": "contracts/TokenLaunchpad.sol:TokenLaunchpad",
        "label": "_status",
        "offset": 0,
        "slot": "0",
        "type": "t_uint256"
      },
      {
        "astId": 1214,
        "contract": "contracts/TokenLaunchpad.sol:TokenLaunchpad",
        "label": "tokens",
        "offset": 0,
        "slot": "1",
        "type": "t_mapping(t_address,t_struct(TokenInfo)1051_storage)"
      },
      {
        "astId": 1217,
        "contract": "contracts/TokenLaunchpad.sol:TokenLaunchpad",
        "label": "allTokens",
        "offset": 0,
        "slot": "2",
        "type": "t_array(t_address)dyn_storage"
      },
      {
        "astId": 1220,
        "contract": "contracts/TokenLaunchpad.sol:TokenLaunchpad",
        "label": "_tokenIdCounter",
        "offset": 0,
        "slot": "3",
        "type": "t_uint256"
      },
      {
        "astId": 1223,
        "contract": "contracts/TokenLaunchpad.sol:TokenLaunchpad",
        "label": "platformFeePercent",
        "offset": 0,
        "slot": "4",
        "type": "t_uint256"
      },
      {
        "astId": 1225,
        "contract": "contracts/TokenLaunchpad.sol:TokenLaunchpad",
        "label": "feeRecipient",
        "offset": 0,
        "slot": "5",
        "type": "t_address"
      }
    ],
    "types": {
      "t_address": {
        "encoding": "inplace",
        "label": "address",
        "numberOfBytes": "20"
      },
      "t_array(t_address)dyn_storage": {
        "base": "t_address",
        "encoding": "dynamic_array",
        "label": "address[]",
        "numberOfBytes": "32"
      },
      "t_bool": {
        "encoding": "inplace",
        "label": "bool",
        "numberOfBytes": "1"
      },
      "t_mapping(t_address,t_struct(TokenInfo)1051_storage)": {
        "encoding": "mapping",
        "key": "t_address",
        "label": "mapping(address => struct TokenLaunchpad.TokenInfo)",
        "numberOfBytes": "32",
        "value": "t_struct(TokenInfo)1051_storage"
      },
      "t_struct(TokenInfo)1051_storage": {
        "encoding": "inplace",
        "label": "struct TokenLaunchpad.TokenInfo",
        "members": [
          {
            "astId": 1042,
            "contract": "contracts/TokenLaunchpad.sol:TokenLaunchpad",
            "label": "tokenAddress",
            "offset": 0,
            "slot": "0",
            "type": "t_address"
          },
          {
            "astId": 1044,
            "contract": "contracts/TokenLaunchpad.sol:TokenLaunchpad",
            "label": "creator",
            "offset": 0,
            "slot": "1",
            "type": "t_address"
          },
          {
            "astId": 1046,
            "contract": "contracts/TokenLaunchpad.sol:TokenLaunchpad",
            "label": "price",
            "offset": 0,
            "slot": "2",
            "type": "t_uint256"
          },
          {
            "astId": 1048,
            "contract": "contracts/TokenLaunchpad.sol:TokenLaunchpad",
            "label": "availableSupply",
            "offset": 0,
            "slot": "3",
            "type": "t_uint256"
          },
          {
            "astId": 1050,
            "contract": "contracts/TokenLaunchpad.sol:TokenLaunchpad",
            "label": "isActive",
            "offset": 0,
            "slot": "4",
            "type": "t_bool"
          }
        ],
        "numberOfBytes": "160"
      },
      "t_uint256": {
        "encoding": "inplace",
        "label": "uint256",
        "numberOfBytes": "32"
      }
    }
  }
}