{
  "address": "0x3EA4857E2402D9671a7289233024f00728Fa8314",
  "abi": [
    {
      "inputs": [],
      "stateMutability": "nonpayable",
      "type": "constructor"
    },
    {
      "inputs": [
        {
          "internalType": "address",
          "name": "target",
          "type": "address"
        }
      ],
      "name": "AddressEmptyCode",
      "type": "error"
    },
    {
      "inputs": [
        {
          "internalType": "address",
          "name": "implementation",
          "type": "address"
        }
      ],
      "name": "ERC1967InvalidImplementation",
      "type": "error"
    },
    {
      "inputs": [],
      "name": "ERC1967NonPayable",
      "type": "error"
    },
    {
      "inputs": [],
      "name": "FailedCall",
      "type": "error"
    },
    {
      "inputs": [],
      "name": "InvalidInitialization",
      "type": "error"
    },
    {
      "inputs": [],
      "name": "NotInitializing",
      "type": "error"
    },
    {
      "inputs": [
        {
          "internalType": "address",
          "name": "owner",
          "type": "address"
        }
      ],
      "name": "OwnableInvalidOwner",
      "type": "error"
    },
    {
      "inputs": [
        {
          "internalType": "address",
          "name": "account",
          "type": "address"
        }
      ],
      "name": "OwnableUnauthorizedAccount",
      "type": "error"
    },
    {
      "inputs": [
        {
          "internalType": "address",
          "name": "token",
          "type": "address"
        }
      ],
      "name": "SafeERC20FailedOperation",
      "type": "error"
    },
    {
      "inputs": [],
      "name": "UUPSUnauthorizedCallContext",
      "type": "error"
    },
    {
      "inputs": [
        {
          "internalType": "bytes32",
          "name": "slot",
          "type": "bytes32"
        }
      ],
      "name": "UUPSUnsupportedProxiableUUID",
      "type": "error"
    },
    {
      "anonymous": false,
      "inputs": [
        {
          "indexed": false,
          "internalType": "uint64",
          "name": "sequenceNumber",
          "type": "uint64"
        },
        {
          "indexed": false,
          "internalType": "bytes32",
          "name": "randomNumber",
          "type": "bytes32"
        }
      ],
      "name": "EntropyResult",
      "type": "event"
    },
    {
      "anonymous": false,
      "inputs": [
        {
          "indexed": false,
          "internalType": "uint64",
          "name": "version",
          "type": "uint64"
        }
      ],
      "name": "Initialized",
      "type": "event"
    },
    {
      "anonymous": false,
      "inputs": [
        {
          "indexed": false,
          "internalType": "uint256",
          "name": "time",
          "type": "uint256"
        },
        {
          "indexed": false,
          "internalType": "address",
          "name": "winner",
          "type": "address"
        },
        {
          "indexed": false,
          "internalType": "uint256",
          "name": "winningTicket",
          "type": "uint256"
        },
        {
          "indexed": false,
          "internalType": "uint256",
          "name": "winAmount",
          "type": "uint256"
        },
        {
          "indexed": false,
          "internalType": "uint256",
          "name": "ticketsPurchasedTotalBps",
          "type": "uint256"
        }
      ],
      "name": "JackpotRun",
      "type": "event"
    },
    {
      "anonymous": false,
      "inputs": [
        {
          "indexed": true,
          "internalType": "address",
          "name": "user",
          "type": "address"
        }
      ],
      "name": "JackpotRunRequested",
      "type": "event"
    },
    {
      "anonymous": false,
      "inputs": [
        {
          "indexed": true,
          "internalType": "address",
          "name": "lpAddress",
          "type": "address"
        },
        {
          "indexed": false,
          "internalType": "uint256",
          "name": "amount",
          "type": "uint256"
        },
        {
          "indexed": false,
          "internalType": "uint256",
          "name": "riskPercentage",
          "type": "uint256"
        }
      ],
      "name": "LpDeposit",
      "type": "event"
    },
    {
      "anonymous": false,
      "inputs": [
        {
          "indexed": true,
          "internalType": "address",
          "name": "lpAddress",
          "type": "address"
        },
        {
          "indexed": false,
          "internalType": "uint256",
          "name": "principalAmount",
          "type": "uint256"
        }
      ],
      "name": "LpPrincipalWithdrawal",
      "type": "event"
    },
    {
      "anonymous": false,
      "inputs": [
        {
          "indexed": true,
          "internalType": "address",
          "name": "lpAddress",
          "type": "address"
        },
        {
          "indexed": false,
          "internalType": "uint256",
          "name": "principal",
          "type": "uint256"
        },
        {
          "indexed": false,
          "internalType": "uint256",
          "name": "stake",
          "type": "uint256"
        }
      ],
      "name": "LpRebalance",
      "type": "event"
    },
    {
      "anonymous": false,
      "inputs": [
        {
          "indexed": true,
          "internalType": "address",
          "name": "lpAddress",
          "type": "address"
        },
        {
          "indexed": false,
          "internalType": "uint256",
          "name": "riskPercentage",
          "type": "uint256"
        }
      ],
      "name": "LpRiskPercentageAdjustment",
      "type": "event"
    },
    {
      "anonymous": false,
      "inputs": [
        {
          "indexed": true,
          "internalType": "address",
          "name": "lpAddress",
          "type": "address"
        }
      ],
      "name": "LpStakeWithdrawal",
      "type": "event"
    },
    {
      "anonymous": false,
      "inputs": [
        {
          "indexed": true,
          "internalType": "address",
          "name": "previousOwner",
          "type": "address"
        },
        {
          "indexed": true,
          "internalType": "address",
          "name": "newOwner",
          "type": "address"
        }
      ],
      "name": "OwnershipTransferStarted",
      "type": "event"
    },
    {
      "anonymous": false,
      "inputs": [
        {
          "indexed": true,
          "internalType": "address",
          "name": "previousOwner",
          "type": "address"
        },
        {
          "indexed": true,
          "internalType": "address",
          "name": "newOwner",
          "type": "address"
        }
      ],
      "name": "OwnershipTransferred",
      "type": "event"
    },
    {
      "anonymous": false,
      "inputs": [
        {
          "indexed": false,
          "internalType": "uint256",
          "name": "amount",
          "type": "uint256"
        }
      ],
      "name": "ProtocolFeeWithdrawal",
      "type": "event"
    },
    {
      "anonymous": false,
      "inputs": [
        {
          "indexed": true,
          "internalType": "address",
          "name": "implementation",
          "type": "address"
        }
      ],
      "name": "Upgraded",
      "type": "event"
    },
    {
      "anonymous": false,
      "inputs": [
        {
          "indexed": true,
          "internalType": "address",
          "name": "user",
          "type": "address"
        },
        {
          "indexed": false,
          "internalType": "uint256",
          "name": "amount",
          "type": "uint256"
        }
      ],
      "name": "UserReferralFeeWithdrawal",
      "type": "event"
    },
    {
      "anonymous": false,
      "inputs": [
        {
          "indexed": true,
          "internalType": "address",
          "name": "recipient",
          "type": "address"
        },
        {
          "indexed": false,
          "internalType": "uint256",
          "name": "ticketsPurchasedTotalBps",
          "type": "uint256"
        },
        {
          "indexed": true,
          "internalType": "address",
          "name": "referrer",
          "type": "address"
        },
        {
          "indexed": true,
          "internalType": "address",
          "name": "buyer",
          "type": "address"
        }
      ],
      "name": "UserTicketPurchase",
      "type": "event"
    },
    {
      "anonymous": false,
      "inputs": [
        {
          "indexed": true,
          "internalType": "address",
          "name": "user",
          "type": "address"
        },
        {
          "indexed": false,
          "internalType": "uint256",
          "name": "amount",
          "type": "uint256"
        }
      ],
      "name": "UserWinWithdrawal",
      "type": "event"
    },
    {
      "inputs": [],
      "name": "UPGRADE_INTERFACE_VERSION",
      "outputs": [
        {
          "internalType": "string",
          "name": "",
          "type": "string"
        }
      ],
      "stateMutability": "view",
      "type": "function"
    },
    {
      "inputs": [
        {
          "internalType": "uint64",
          "name": "sequence",
          "type": "uint64"
        },
        {
          "internalType": "address",
          "name": "provider",
          "type": "address"
        },
        {
          "internalType": "bytes32",
          "name": "randomNumber",
          "type": "bytes32"
        }
      ],
      "name": "_entropyCallback",
      "outputs": [],
      "stateMutability": "nonpayable",
      "type": "function"
    },
    {
      "inputs": [],
      "name": "acceptOwnership",
      "outputs": [],
      "stateMutability": "nonpayable",
      "type": "function"
    },
    {
      "inputs": [
        {
          "internalType": "uint256",
          "name": "",
          "type": "uint256"
        }
      ],
      "name": "activeLpAddresses",
      "outputs": [
        {
          "internalType": "address",
          "name": "",
          "type": "address"
        }
      ],
      "stateMutability": "view",
      "type": "function"
    },
    {
      "inputs": [],
      "name": "allFeesTotal",
      "outputs": [
        {
          "internalType": "uint256",
          "name": "",
          "type": "uint256"
        }
      ],
      "stateMutability": "view",
      "type": "function"
    },
    {
      "inputs": [],
      "name": "allowPurchasing",
      "outputs": [
        {
          "internalType": "bool",
          "name": "",
          "type": "bool"
        }
      ],
      "stateMutability": "view",
      "type": "function"
    },
    {
      "inputs": [
        {
          "internalType": "address[]",
          "name": "lpAddresses",
          "type": "address[]"
        }
      ],
      "name": "deactivateInactiveLPs",
      "outputs": [],
      "stateMutability": "nonpayable",
      "type": "function"
    },
    {
      "inputs": [],
      "name": "entropyCallbackLock",
      "outputs": [
        {
          "internalType": "bool",
          "name": "",
          "type": "bool"
        }
      ],
      "stateMutability": "view",
      "type": "function"
    },
    {
      "inputs": [],
      "name": "fallbackWinner",
      "outputs": [
        {
          "internalType": "address",
          "name": "",
          "type": "address"
        }
      ],
      "stateMutability": "view",
      "type": "function"
    },
    {
      "inputs": [],
      "name": "feeBps",
      "outputs": [
        {
          "internalType": "uint256",
          "name": "",
          "type": "uint256"
        }
      ],
      "stateMutability": "view",
      "type": "function"
    },
    {
      "inputs": [],
      "name": "forceReleaseJackpotLock",
      "outputs": [],
      "stateMutability": "nonpayable",
      "type": "function"
    },
    {
      "inputs": [],
      "name": "getJackpotFee",
      "outputs": [
        {
          "internalType": "uint256",
          "name": "fee",
          "type": "uint256"
        }
      ],
      "stateMutability": "view",
      "type": "function"
    },
    {
      "inputs": [
        {
          "internalType": "address",
          "name": "_entropyAddress",
          "type": "address"
        },
        {
          "internalType": "address",
          "name": "_initialOwnerAddress",
          "type": "address"
        },
        {
          "internalType": "address",
          "name": "_token",
          "type": "address"
        },
        {
          "internalType": "uint256",
          "name": "_ticketPrice",
          "type": "uint256"
        }
      ],
      "name": "initialize",
      "outputs": [],
      "stateMutability": "nonpayable",
      "type": "function"
    },
    {
      "inputs": [],
      "name": "jackpotLock",
      "outputs": [
        {
          "internalType": "bool",
          "name": "",
          "type": "bool"
        }
      ],
      "stateMutability": "view",
      "type": "function"
    },
    {
      "inputs": [],
      "name": "lastJackpotEndTime",
      "outputs": [
        {
          "internalType": "uint256",
          "name": "",
          "type": "uint256"
        }
      ],
      "stateMutability": "view",
      "type": "function"
    },
    {
      "inputs": [],
      "name": "lastWinnerAddress",
      "outputs": [
        {
          "internalType": "address",
          "name": "",
          "type": "address"
        }
      ],
      "stateMutability": "view",
      "type": "function"
    },
    {
      "inputs": [
        {
          "internalType": "uint256",
          "name": "riskPercentage",
          "type": "uint256"
        }
      ],
      "name": "lpAdjustRiskPercentage",
      "outputs": [],
      "stateMutability": "nonpayable",
      "type": "function"
    },
    {
      "inputs": [
        {
          "internalType": "uint256",
          "name": "riskPercentage",
          "type": "uint256"
        },
        {
          "internalType": "uint256",
          "name": "value",
          "type": "uint256"
        }
      ],
      "name": "lpDeposit",
      "outputs": [],
      "stateMutability": "nonpayable",
      "type": "function"
    },
    {
      "inputs": [],
      "name": "lpFeesTotal",
      "outputs": [
        {
          "internalType": "uint256",
          "name": "",
          "type": "uint256"
        }
      ],
      "stateMutability": "view",
      "type": "function"
    },
    {
      "inputs": [],
      "name": "lpLimit",
      "outputs": [
        {
          "internalType": "uint256",
          "name": "",
          "type": "uint256"
        }
      ],
      "stateMutability": "view",
      "type": "function"
    },
    {
      "inputs": [],
      "name": "lpPoolCap",
      "outputs": [
        {
          "internalType": "uint256",
          "name": "",
          "type": "uint256"
        }
      ],
      "stateMutability": "view",
      "type": "function"
    },
    {
      "inputs": [],
      "name": "lpPoolTotal",
      "outputs": [
        {
          "internalType": "uint256",
          "name": "",
          "type": "uint256"
        }
      ],
      "stateMutability": "view",
      "type": "function"
    },
    {
      "inputs": [
        {
          "internalType": "address",
          "name": "",
          "type": "address"
        }
      ],
      "name": "lpsInfo",
      "outputs": [
        {
          "internalType": "uint256",
          "name": "principal",
          "type": "uint256"
        },
        {
          "internalType": "uint256",
          "name": "stake",
          "type": "uint256"
        },
        {
          "internalType": "uint256",
          "name": "riskPercentage",
          "type": "uint256"
        },
        {
          "internalType": "bool",
          "name": "active",
          "type": "bool"
        }
      ],
      "stateMutability": "view",
      "type": "function"
    },
    {
      "inputs": [],
      "name": "minLpDeposit",
      "outputs": [
        {
          "internalType": "uint256",
          "name": "",
          "type": "uint256"
        }
      ],
      "stateMutability": "view",
      "type": "function"
    },
    {
      "inputs": [],
      "name": "owner",
      "outputs": [
        {
          "internalType": "address",
          "name": "",
          "type": "address"
        }
      ],
      "stateMutability": "view",
      "type": "function"
    },
    {
      "inputs": [],
      "name": "pendingOwner",
      "outputs": [
        {
          "internalType": "address",
          "name": "",
          "type": "address"
        }
      ],
      "stateMutability": "view",
      "type": "function"
    },
    {
      "inputs": [],
      "name": "protocolFeeAddress",
      "outputs": [
        {
          "internalType": "address",
          "name": "",
          "type": "address"
        }
      ],
      "stateMutability": "view",
      "type": "function"
    },
    {
      "inputs": [],
      "name": "protocolFeeClaimable",
      "outputs": [
        {
          "internalType": "uint256",
          "name": "",
          "type": "uint256"
        }
      ],
      "stateMutability": "view",
      "type": "function"
    },
    {
      "inputs": [],
      "name": "protocolFeeThreshold",
      "outputs": [
        {
          "internalType": "uint256",
          "name": "",
          "type": "uint256"
        }
      ],
      "stateMutability": "view",
      "type": "function"
    },
    {
      "inputs": [],
      "name": "proxiableUUID",
      "outputs": [
        {
          "internalType": "bytes32",
          "name": "",
          "type": "bytes32"
        }
      ],
      "stateMutability": "view",
      "type": "function"
    },
    {
      "inputs": [
        {
          "internalType": "address",
          "name": "referrer",
          "type": "address"
        },
        {
          "internalType": "uint256",
          "name": "value",
          "type": "uint256"
        },
        {
          "internalType": "address",
          "name": "recipient",
          "type": "address"
        }
      ],
      "name": "purchaseTickets",
      "outputs": [],
      "stateMutability": "nonpayable",
      "type": "function"
    },
    {
      "inputs": [],
      "name": "referralFeeBps",
      "outputs": [
        {
          "internalType": "uint256",
          "name": "",
          "type": "uint256"
        }
      ],
      "stateMutability": "view",
      "type": "function"
    },
    {
      "inputs": [
        {
          "internalType": "address",
          "name": "",
          "type": "address"
        }
      ],
      "name": "referralFeesClaimable",
      "outputs": [
        {
          "internalType": "uint256",
          "name": "",
          "type": "uint256"
        }
      ],
      "stateMutability": "view",
      "type": "function"
    },
    {
      "inputs": [],
      "name": "referralFeesTotal",
      "outputs": [
        {
          "internalType": "uint256",
          "name": "",
          "type": "uint256"
        }
      ],
      "stateMutability": "view",
      "type": "function"
    },
    {
      "inputs": [],
      "name": "renounceOwnership",
      "outputs": [],
      "stateMutability": "nonpayable",
      "type": "function"
    },
    {
      "inputs": [],
      "name": "roundDurationInSeconds",
      "outputs": [
        {
          "internalType": "uint256",
          "name": "",
          "type": "uint256"
        }
      ],
      "stateMutability": "view",
      "type": "function"
    },
    {
      "inputs": [
        {
          "internalType": "bytes32",
          "name": "userRandomNumber",
          "type": "bytes32"
        }
      ],
      "name": "runJackpot",
      "outputs": [],
      "stateMutability": "payable",
      "type": "function"
    },
    {
      "inputs": [
        {
          "internalType": "bool",
          "name": "_allow",
          "type": "bool"
        }
      ],
      "name": "setAllowPurchasing",
      "outputs": [],
      "stateMutability": "nonpayable",
      "type": "function"
    },
    {
      "inputs": [
        {
          "internalType": "address",
          "name": "_fallbackWinner",
          "type": "address"
        }
      ],
      "name": "setFallbackWinner",
      "outputs": [],
      "stateMutability": "nonpayable",
      "type": "function"
    },
    {
      "inputs": [
        {
          "internalType": "uint256",
          "name": "_feeBps",
          "type": "uint256"
        }
      ],
      "name": "setFeeBps",
      "outputs": [],
      "stateMutability": "nonpayable",
      "type": "function"
    },
    {
      "inputs": [
        {
          "internalType": "uint256",
          "name": "_lpLimit",
          "type": "uint256"
        }
      ],
      "name": "setLpLimit",
      "outputs": [],
      "stateMutability": "nonpayable",
      "type": "function"
    },
    {
      "inputs": [
        {
          "internalType": "uint256",
          "name": "_cap",
          "type": "uint256"
        }
      ],
      "name": "setLpPoolCap",
      "outputs": [],
      "stateMutability": "nonpayable",
      "type": "function"
    },
    {
      "inputs": [
        {
          "internalType": "uint256",
          "name": "_minDeposit",
          "type": "uint256"
        }
      ],
      "name": "setMinLpDeposit",
      "outputs": [],
      "stateMutability": "nonpayable",
      "type": "function"
    },
    {
      "inputs": [
        {
          "internalType": "address",
          "name": "_protocolFeeAddress",
          "type": "address"
        }
      ],
      "name": "setProtocolFeeAddress",
      "outputs": [],
      "stateMutability": "nonpayable",
      "type": "function"
    },
    {
      "inputs": [
        {
          "internalType": "uint256",
          "name": "_protocolFeeThreshold",
          "type": "uint256"
        }
      ],
      "name": "setProtocolFeeThreshold",
      "outputs": [],
      "stateMutability": "nonpayable",
      "type": "function"
    },
    {
      "inputs": [
        {
          "internalType": "uint256",
          "name": "_referralFeeBps",
          "type": "uint256"
        }
      ],
      "name": "setReferralFeeBps",
      "outputs": [],
      "stateMutability": "nonpayable",
      "type": "function"
    },
    {
      "inputs": [
        {
          "internalType": "uint256",
          "name": "_newDuration",
          "type": "uint256"
        }
      ],
      "name": "setRoundDurationInSeconds",
      "outputs": [],
      "stateMutability": "nonpayable",
      "type": "function"
    },
    {
      "inputs": [
        {
          "internalType": "uint256",
          "name": "_newTicketPrice",
          "type": "uint256"
        }
      ],
      "name": "setTicketPrice",
      "outputs": [],
      "stateMutability": "nonpayable",
      "type": "function"
    },
    {
      "inputs": [
        {
          "internalType": "uint256",
          "name": "_userLimit",
          "type": "uint256"
        }
      ],
      "name": "setUserLimit",
      "outputs": [],
      "stateMutability": "nonpayable",
      "type": "function"
    },
    {
      "inputs": [],
      "name": "ticketCountTotalBps",
      "outputs": [
        {
          "internalType": "uint256",
          "name": "",
          "type": "uint256"
        }
      ],
      "stateMutability": "view",
      "type": "function"
    },
    {
      "inputs": [],
      "name": "ticketPrice",
      "outputs": [
        {
          "internalType": "uint256",
          "name": "",
          "type": "uint256"
        }
      ],
      "stateMutability": "view",
      "type": "function"
    },
    {
      "inputs": [],
      "name": "token",
      "outputs": [
        {
          "internalType": "contract IERC20",
          "name": "",
          "type": "address"
        }
      ],
      "stateMutability": "view",
      "type": "function"
    },
    {
      "inputs": [],
      "name": "tokenDecimals",
      "outputs": [
        {
          "internalType": "uint256",
          "name": "",
          "type": "uint256"
        }
      ],
      "stateMutability": "view",
      "type": "function"
    },
    {
      "inputs": [
        {
          "internalType": "address",
          "name": "newOwner",
          "type": "address"
        }
      ],
      "name": "transferOwnership",
      "outputs": [],
      "stateMutability": "nonpayable",
      "type": "function"
    },
    {
      "inputs": [
        {
          "internalType": "address",
          "name": "newImplementation",
          "type": "address"
        },
        {
          "internalType": "bytes",
          "name": "data",
          "type": "bytes"
        }
      ],
      "name": "upgradeToAndCall",
      "outputs": [],
      "stateMutability": "payable",
      "type": "function"
    },
    {
      "inputs": [],
      "name": "userLimit",
      "outputs": [
        {
          "internalType": "uint256",
          "name": "",
          "type": "uint256"
        }
      ],
      "stateMutability": "view",
      "type": "function"
    },
    {
      "inputs": [],
      "name": "userPoolTotal",
      "outputs": [
        {
          "internalType": "uint256",
          "name": "",
          "type": "uint256"
        }
      ],
      "stateMutability": "view",
      "type": "function"
    },
    {
      "inputs": [
        {
          "internalType": "address",
          "name": "",
          "type": "address"
        }
      ],
      "name": "usersInfo",
      "outputs": [
        {
          "internalType": "uint256",
          "name": "ticketsPurchasedTotalBps",
          "type": "uint256"
        },
        {
          "internalType": "uint256",
          "name": "winningsClaimable",
          "type": "uint256"
        },
        {
          "internalType": "bool",
          "name": "active",
          "type": "bool"
        }
      ],
      "stateMutability": "view",
      "type": "function"
    },
    {
      "inputs": [],
      "name": "withdrawAllLP",
      "outputs": [],
      "stateMutability": "nonpayable",
      "type": "function"
    },
    {
      "inputs": [],
      "name": "withdrawProtocolFees",
      "outputs": [],
      "stateMutability": "nonpayable",
      "type": "function"
    },
    {
      "inputs": [],
      "name": "withdrawReferralFees",
      "outputs": [],
      "stateMutability": "nonpayable",
      "type": "function"
    },
    {
      "inputs": [],
      "name": "withdrawWinnings",
      "outputs": [],
      "stateMutability": "nonpayable",
      "type": "function"
    }
  ],
  "transactionHash": "0x9199789ecf304b413101fcd55301fe5f5ef82ccf0f6caf4e300478fb063bce5a",
  "args": [],
  "numDeployments": 1,
  "solcInputHash": "69378acc7b1b0d379b8869d0c657c613",
  "bytecode": "0x60a08060405234620000d157306080527ff0c57e16840df040f15088dc2f81fe391c3923bec73e23a9662efc9c229c6a009081549060ff8260401c16620000c257506001600160401b036002600160401b0319828216016200007c575b6040516133f79081620000d7823960805181818161177c0152611f260152f35b6001600160401b031990911681179091556040519081527fc7f505b2f371ae2175ee4913f4499e1f2633a7b5936321eed1cdaeb6115181d290602090a13880806200005c565b63f92ee8a960e01b8152600490fd5b600080fdfe6080604052600436101561001257600080fd5b60003560e01c80630e81b6cf1461264a5780631209b1f61461262c578063159816501461260b578063173608e71461254757806318254372146125295780631e7b0c01146125085780631ec41163146124df57806324a9d853146124c157806328ed54df146124a35780632c8bbb16146122415780632cdcb677146122235780633169141f146122005780633adc6272146121df5780633b97e856146121c157806341ea97991461219857806344a1bcb91461217a57806346ed010214612154578063470328b5146120f35780634a7c01ec146120d55780634f1ef28614611eaa57806351ab9251146119d257806352a5f1f8146117e657806352d1902d146117695780635b470e6e146117485780635d0eaaaf146116f25780635edd2c64146116d457806360b80331146116b3578063630f0b1c146116795780636b7b9112146116365780636f47edb5146115fd578063715018a61461157c57806371ccd3fc1461116557806372c27b62146110845780637480494f146110665780637618f02e1461102357806379ba509714610fd057806385eb72b814610f3e5780638795cccb14610e39578063879b92d614610e1b5780638c6a337614610d875780638d2459b014610d615780638da5cb5b14610d2b5780638e98a1d314610d0d57806392646c2014610ccb578063a2790cd514610cad578063a6c21c3714610c94578063ad3cb1cc14610be9578063c147b47114610bcb578063c988bdc314610baa578063c9cec0ab14610b2c578063cc42e83a14610a72578063cce516b714610a49578063cf756fdf14610705578063d31ed2c4146106e7578063d4bdb266146106c9578063e30c397814610693578063e5ca0fd714610675578063f2ac00e514610657578063f2fde38b146105d0578063fc0c546a146105a3578063fcbf86721461057b5763fed5fbc9146102c657600080fd5b34610576576020806003193601126105765767ffffffffffffffff806004351161057657366023600435011215610576576004356004013511610576576024903660246004356004013560051b60043501011161057657610325612ad5565b60005b60043560040135811061033757005b600435600582901b018301356001600160a01b03811690036105765760018060a01b03838260051b6004350101351660005260039081835260406000209161038460ff82850154166128a3565b600283015461053257600192838101546104fd576005546000199460005b8281106104aa575b50506103ba6000198614156128e2565b80600019810111610495576001946103ee6103db61040c93600019016126eb565b888060a01b03915490871b1c16916126eb565b90919060018060a01b038084549260031b9316831b921b1916179055565b610414612923565b8054918101805460ff191690558161046a575b506040519081527febd480b822209fc7890cbdf5b21417b4aa0db6d18f10f47afc87c12d227b90e084848060a01b03878560051b6004350101351692a201610328565b6000905561048f81868460051b600435010135858060a01b03601a5460081c16612af6565b38610427565b86634e487b7160e01b60005260116004526000fd5b6104ba81989698979495976126eb565b905490881b1c6001600160a01b0390811660043560058b901b018b0135909116146104ed578101969496959392956103a2565b94969495939250389050806103aa565b60405162461bcd60e51b815260048101869052600e818801526d04c50207374616b65206e6f7420360941b6044820152606490fd5b60405162461bcd60e51b8152600481018590526018818701527f4c50207269736b2070657263656e74616765206e6f74203000000000000000006044820152606490fd5b600080fd5b3461057657600036600319011261057657610594612ad5565b600d805460ff60a01b19169055005b3461057657600036600319011261057657601a5460405160089190911c6001600160a01b03168152602090f35b34610576576020366003190112610576576105e961266b565b6105f1612ad5565b6000805160206133a283398151915280546001600160a01b0319166001600160a01b03928316908117909155600080516020613382833981519152549091167f38d16b8cac22d99fc7c124b9cd0de2d3fa1faef420bfe791d8c362d765e22700600080a3005b34610576576000366003190112610576576020601754604051908152f35b34610576576000366003190112610576576020600a54604051908152f35b34610576576000366003190112610576576000805160206133a2833981519152546040516001600160a01b039091168152602090f35b34610576576000366003190112610576576020601154604051908152f35b34610576576000366003190112610576576020600854604051908152f35b346105765760803660031901126105765761071e61266b565b610726612697565b9061072f612681565b907ff0c57e16840df040f15088dc2f81fe391c3923bec73e23a9662efc9c229c6a009283549160ff8360401c16159267ffffffffffffffff811680159081610a41575b6001149081610a37575b159081610a2e575b50610a1c5767ffffffffffffffff1981166001178655836109fd575b506107a9612f79565b6107b1612f79565b6001600160a01b03918083169182156109e4576107ce8492612ba1565b6107d6612f79565b16936001600160601b0360a01b928584600054161760005560405180966320bba64360e21b82528160046020998a935afa801561099e5782916000916109aa575b5016846001541617600155601a549086610100600160a81b038460081b169384610100600160a81b0319851617601a5560046040518094819363313ce56760e01b8352165afa90811561099e57600091610965575b5061088060ff610888921680601b55612ac7565b606435612890565b9283600655610bb8600e556103e8948560115562015180600755601654161760165560c86017556105dc6019556affffffffffffffffffffff60a81b1617601a554260085560648102918183046064148215171561094f5782601855620186a0820291831592848104831484171561094f57600a5502918204600a14171561094f57601c5561091357005b7fc7f505b2f371ae2175ee4913f4499e1f2633a7b5936321eed1cdaeb6115181d29168ff000000000000000019815416905560405160018152a1005b634e487b7160e01b600052601160045260246000fd5b90508681813d8311610997575b61097c81836126ad565b81010312610576575160ff811681036105765761088061086c565b503d610972565b6040513d6000823e3d90fd5b809250888092503d83116109dd575b6109c381836126ad565b810103126105765751818116810361057657819089610817565b503d6109b9565b604051631e4fbdf760e01b815260006004820152602490fd5b68ffffffffffffffffff191668010000000000000001178555856107a0565b60405163f92ee8a960e01b8152600490fd5b90501587610784565b303b15915061077c565b859150610772565b34610576576000366003190112610576576014546040516001600160a01b039091168152602090f35b3461057657600036600319011261057657336000526002602052600160406000200180548015610ae7576000610ae5926040518381527fe372573e877677790970468683abedca6e4f2b10029faf042f8956e47c5df64960203392a255601a54339060081c6001600160a01b0316612af6565b005b60405162461bcd60e51b815260206004820152601760248201527f4e6f2077696e6e696e677320746f2077697468647261770000000000000000006044820152606490fd5b3461057657602036600319011261057657600435610b48612ad5565b600e548111610b5657601155005b60405162461bcd60e51b815260206004820152602660248201527f526566657272616c206270732073686f756c64206e6f7420657863656564206660448201526565652062707360d01b6064820152608490fd5b3461057657602036600319011261057657610bc3612ad5565b600435601855005b34610576576000366003190112610576576020600954604051908152f35b34610576576000366003190112610576576040516040810181811067ffffffffffffffff821117610c7e5760405260058152602090640352e302e360dc1b60208201526040518092602082528251908160208401526000935b828510610c65575050604092506000838284010152601f80199101168101030190f35b8481018201518686016040015293810193859350610c42565b634e487b7160e01b600052604160045260246000fd5b3461057657600036600319011261057657610ae5612967565b34610576576000366003190112610576576020601854604051908152f35b346105765760203660031901126105765760043560055481101561057657610cf46020916126eb565b905460405160039290921b1c6001600160a01b03168152f35b34610576576000366003190112610576576020600754604051908152f35b3461057657600036600319011261057657600080516020613382833981519152546040516001600160a01b039091168152602090f35b3461057657600036600319011261057657602060ff600d5460a81c166040519015158152f35b346105765760203660031901126105765760043580151580610e10575b610dad90612824565b610dbf60ff600d5460a01c161561277c565b3360005260036020528060026040600020610de060ff6003830154166128a3565b01556040519081527f5865997b702fe8b5b63c8a8aa1ffcd7b235564e48f1b0b27b9e2f4841356cc6260203392a2005b506064811115610da4565b34610576576000366003190112610576576020600b54604051908152f35b3461057657600036600319011261057657610e52612ad5565b6015548015610ef95760006015556014546001600160a01b03919082168015610eb457610e8592601a5460081c16612af6565b7f23f70d1b0e61e7e7db842184b58ff9ae4cc5b6ddd32bdefc9f936d5ea5a0bf146020601554604051908152a1005b60405162461bcd60e51b815260206004820152601c60248201527f50726f746f636f6c206665652061646472657373206e6f7420736574000000006044820152606490fd5b60405162461bcd60e51b815260206004820152601c60248201527f4e6f2070726f746f636f6c206665657320746f207769746864726177000000006044820152606490fd5b3461057657600036600319011261057657600054600154604051631711922960e31b81526001600160a01b0391821660048201529160209183916024918391165afa801561099e57602091600091610fa3575b506001600160801b0360405191168152f35b610fc39150823d8411610fc9575b610fbb81836126ad565b8101906127c8565b82610f91565b503d610fb1565b34610576576000366003190112610576576000805160206133a283398151915254336001600160a01b039091160361100b57610ae533612ba1565b60405163118cdaa760e01b8152336004820152602490fd5b346105765760203660031901126105765761103c61266b565b611044612ad5565b601680546001600160a01b0319166001600160a01b0392909216919091179055005b34610576576000366003190112610576576020601254604051908152f35b34610576576020366003190112610576576004356110a0612ad5565b611f408111611120576011546101f4810180911161094f5781106110c357600e55005b60405162461bcd60e51b815260206004820152602f60248201527f526566657272616c206270732073686f756c64206265206c657373207468616e60448201526e020666565206270732062792035303608c1b6064820152608490fd5b60405162461bcd60e51b815260206004820152601e60248201527f466565206270732073686f756c64206e6f7420657863656564203830303000006044820152606490fd5b34610576576040366003190112610576576024600435813581151580611571575b61118f90612824565b6111a160ff600d5460a01c161561277c565b801561151c5760018060a01b0380601a5460081c16604051906370a0823160e01b9182815230600482015260209485828981865afa91821561099e576000926114eb575b506111f4919230903390612b48565b8383601a5460081c1692876040518095819382523060048301525afa801561099e576000906114bc575b61122892506127e7565b93600654946112408661123b8184612870565b612890565b95336000526003855260ff6003604060002001541615611427575b86106113bd5761126d8660095461276f565b600a541061137957859033600052600385528560406000209360038501805460ff811615611305575b5050506002846112aa856112b3975461276f565b815501556127e7565b806112ec575b50506040519283528201527fee1c1fc8c3cee482d2fd6bc7dac7f2282a10417bcd4a828918e2c563525cc3f060403392a2005b6112fe913390601a5460081c16612af6565b83806112b9565b60ff19166001179055600554929493509050600160401b821015611365575091856002889361135e6113408760016112b399016005556126eb565b81546001600160a01b0360039290921b91821b19163390911b179055565b948a611296565b634e487b7160e01b60009081526041600452fd5b60405162461bcd60e51b815260048101859052601b818401527f4465706f7369742065786365656473204c5020706f6f6c2063617000000000006044820152606490fd5b60405162461bcd60e51b8152600481018590526039818401527f496e76616c6964206465706f73697420616d6f756e742c206d7573742062652060448201527f67726561746572207468616e207469636b6574207072696365000000000000006064820152608490fd5b60055460175411156114815760185487101561125b5760405162461bcd60e51b815260048101869052601c818501527f4c50206465706f736974206c657373207468616e206d696e696d756d000000006044820152606490fd5b60405162461bcd60e51b8152600481018690526014818501527313585e081314081b1a5b5a5d081c995858da195960621b6044820152606490fd5b508382813d83116114e4575b6114d281836126ad565b8101031261057657611228915161121e565b503d6114c8565b91508582813d8311611515575b61150281836126ad565b81010312610576576111f49151916111e5565b503d6114f8565b60405162461bcd60e51b8152602060048201526028818501527f496e76616c6964206465706f73697420616d6f756e742c206d75737420626520604482015267706f73697469766560c01b6064820152608490fd5b506064821115611186565b3461057657600036600319011261057657611595612ad5565b6000805160206133a283398151915280546001600160a01b0319908116909155600080516020613382833981519152805491821690556000906001600160a01b03167f8be0079c531659141344cd1fd0a4f28419497f9722a3daafe3b4186f6b6457e08280a3005b346105765760203660031901126105765760043580151580910361057657611623612ad5565b60ff8019601a5416911617601a55600080f35b346105765760203660031901126105765761164f61266b565b611657612ad5565b601480546001600160a01b0319166001600160a01b0392909216919091179055005b34610576576020366003190112610576576001600160a01b0361169a61266b565b1660005260136020526020604060002054604051908152f35b34610576576020366003190112610576576116cc612ad5565b600435601955005b34610576576000366003190112610576576020600c54604051908152f35b34610576576020366003190112610576576001600160a01b0361171361266b565b1660005260026020526060604060002080549060ff600260018301549201541690604051928352602083015215156040820152f35b3461057657602036600319011261057657611761612ad5565b600435601755005b34610576576000366003190112610576577f00000000000000000000000000000000000000000000000000000000000000006001600160a01b031630036117d45760206040517f360894a13ba1a3210667c828492db98dca3e2076cc3735a920a3ca505d382bbc8152f35b60405163703e46dd60e11b8152600490fd5b346105765760603660031901126105765760043567ffffffffffffffff811680910361057657611814612697565b5060005460443591906001600160a01b0316801561198d57330361193c5760407f651c0245420dae86b3736a649329183412691f8b793c6f53958bcfca62a9f1d4918151908152836020820152a1600d549060ff8260a81c166118ed5760ff8260a01c16156118a85760ff60a81b19909116600160a81b17600d5561189890612c6b565b600d805461ffff60a01b19169055005b60405162461bcd60e51b815260206004820152601c60248201527f4a61636b706f74206c6f636b206e6565647320746f20626520736574000000006044820152606490fd5b60405162461bcd60e51b815260206004820152602160248201527f456e74726f70792063616c6c6261636b206c6f636b20616c72656164792073656044820152601d60fa1b6064820152608490fd5b60405162461bcd60e51b815260206004820152602360248201527f4f6e6c7920456e74726f70792063616e2063616c6c20746869732066756e637460448201526234b7b760e91b6064820152608490fd5b60405162461bcd60e51b815260206004820152601760248201527f456e74726f70792061646472657373206e6f74207365740000000000000000006044820152606490fd5b34610576576060366003190112610576576119eb61266b565b60249081356119f8612681565b90601a549260ff841615611e66578115611e1057611a1e60ff600d5460a01c161561277c565b6001600160a01b0390811693338514611dd4576040516370a0823160e01b808252306004830152602094909260081c8416919085828a81865afa91821561099e57600092611da3575b50611a76919230903390612b48565b8383601a5460081c1692886040518095819382523060048301525afa801561099e57600090611d74575b611aaa92506127e7565b928181168015908115611d6a575b5015611d64575033925b60065490611ad08282612870565b918215611d0857611ae19083612890565b91600e5490612710918203828111611cf357611afc91612890565b9784871696876000526002875260406000209160028301805460ff811615611c3f575b5050505091611bd4611bcc7fd72c70202ab87b3549553b1d4ceb2a632c83cb96fa2dfe65c30282862fe11ade9796959385611b5e8d611bdc985461276f565b9055611b6c8c600c5461276f565b600c55611bc381611b7f600e5488612890565b04918c158015918e91611c3757611b986011548a612890565b045b611ba481866127e7565b92611bb186600f5461276f565b600f55611c08575b505060105461276f565b601055846127e7565b600b5461276f565b600b556127e7565b80611bef575b50506040519485523394a4005b611c01913390601a5460081c16612af6565b8580611be2565b611c2d9160005260138c526040600020611c2382825461276f565b905560125461276f565b6012558c8f611bb9565b506000611b9a565b6004546019541115611cb65760ff1916600117905560045490600160401b82101561136557507fd72c70202ab87b3549553b1d4ceb2a632c83cb96fa2dfe65c30282862fe11ade97969593611bdc9593611ca9611bd4946103ee856001611bcc9701600455612738565b9395819597989950611b1f565b60405162461bcd60e51b8152600481018b90526016818501527513585e081d5cd95c881b1a5b5a5d081c995858da195960521b6044820152606490fd5b89634e487b7160e01b60005260116004526000fd5b60405162461bcd60e51b815260048101869052602f818a01527f496e73756666696369656e7420616d6f756e7420666f72206d696e696d756d2060448201526e7469636b657420707572636861736560881b6064820152608490fd5b92611ac2565b9050331487611ab8565b508382813d8311611d9c575b611d8a81836126ad565b8101031261057657611aaa9151611aa0565b503d611d80565b91508582813d8311611dcd575b611dba81836126ad565b8101031261057657611a76915191611a67565b503d611db0565b60405162461bcd60e51b8152602060048201526015818801527421b0b73737ba103932b332b9103cb7bab939b2b63360591b6044820152606490fd5b60405162461bcd60e51b8152602060048201526029818701527f496e76616c696420707572636861736520616d6f756e742c206d75737420626560448201526820706f73697469766560b81b6064820152608490fd5b60405162461bcd60e51b815260206004820152601e818701527f50757263686173696e67207469636b657473206e6f7420616c6c6f77656400006044820152606490fd5b604036600319011261057657611ebe61266b565b602490813567ffffffffffffffff8111610576573660238201121561057657806004013591611eec836126cf565b611ef960405191826126ad565b83815260209384820193368783830101116105765781600092888893018737830101526001600160a01b037f000000000000000000000000000000000000000000000000000000000000000081163081149081156120a7575b506117d457611f5f612ad5565b6040516352d1902d60e01b8152908316948082600481895afa918291600093612077575b5050611fa157604051634c9c8ce360e01b8152600481018690528690fd5b8490867f360894a13ba1a3210667c828492db98dca3e2076cc3735a920a3ca505d382bbc918281036120625750843b1561204c575080546001600160a01b03191682179055604051907fbc7cd75a20ee27fd9adebab32041f755214dbc6bffa90cc0225b39da2e5c2d3b600080a281511561203257506000610ae59381925190845af461202c6127f4565b9161331e565b925050503461203d57005b63b398979f60e01b8152600490fd5b604051634c9c8ce360e01b815260048101849052fd5b60405190632a87526960e21b82526004820152fd5b9080929350813d83116120a0575b61208f81836126ad565b810103126105765751908780611f83565b503d612085565b9050817f360894a13ba1a3210667c828492db98dca3e2076cc3735a920a3ca505d382bbc5416141587611f52565b34610576576000366003190112610576576020601954604051908152f35b34610576576020366003190112610576576001600160a01b0361211461266b565b1660005260036020526080604060002080549060018101549060ff6003600283015492015416916040519384526020840152604083015215156060820152f35b3461057657600036600319011261057657602060ff600d5460a01c166040519015158152f35b34610576576000366003190112610576576020601554604051908152f35b34610576576000366003190112610576576016546040516001600160a01b039091168152602090f35b34610576576000366003190112610576576020601b54604051908152f35b34610576576020366003190112610576576121f8612ad5565b600435601c55005b3461057657600036600319011261057657602060ff601a54166040519015158152f35b34610576576000366003190112610576576020601c54604051908152f35b6020806003193601126105765761225d6008546007549061276f565b421061245457600d5461227660ff8260a01c161561277c565b60ff60a01b1916600160a01b17600d55600054600154604051631711922960e31b81526001600160a01b03918216600482015290929182908290602490829087165afa801561099e576001600160801b0391600091612437575b5016918234106123df57819083341161237f575b60448160005416916001541660405195869384926319cb825f60e01b8452600484015260043560248401525af1801561099e57612344575b337f826f6f38165cfdebf966078f0436bc3e414e3972837815771126691a3faa7daa600080a2005b81813d8311612378575b61235881836126ad565b81010312610576575167ffffffffffffffff81160361057657808061231c565b503d61234e565b9050600080808061239087346127e7565b335af161239b6127f4565b50156123a85781906122e4565b60405162461bcd60e51b815260048101839052600f60248201526e151c985b9cd9995c8819985a5b1959608a1b6044820152606490fd5b60405162461bcd60e51b815260048101839052602a60248201527f496e73756666696369656e742067617320746f2067656e65726174652072616e6044820152693237b690373ab6b132b960b11b6064820152608490fd5b61244e9150833d8511610fc957610fbb81836126ad565b846122d0565b6084906040519062461bcd60e51b82526004820152602260248201527f4a61636b706f742063616e206f6e6c792062652072756e206f6e636520612064604482015261617960f01b6064820152fd5b34610576576000366003190112610576576020600f54604051908152f35b34610576576000366003190112610576576020600e54604051908152f35b3461057657600036600319011261057657600d546040516001600160a01b039091168152602090f35b3461057657602036600319011261057657612521612ad5565b600435600755005b34610576576000366003190112610576576020601054604051908152f35b3461057657600036600319011261057657336000526013602052604060002054156125c6573360005260136020526040600020600081549155612598813360018060a01b03601a5460081c16612af6565b6040519081527fd637c0db1643ba2f0205c1f2dd21d9f30bda04ed307d74527e6592f1f43f435d60203392a2005b60405162461bcd60e51b815260206004820152601c60248201527f4e6f20726566657272616c206665657320746f207769746864726177000000006044820152606490fd5b3461057657602036600319011261057657612624612ad5565b600435600655005b34610576576000366003190112610576576020600654604051908152f35b3461057657602036600319011261057657612663612ad5565b600435600a55005b600435906001600160a01b038216820361057657565b604435906001600160a01b038216820361057657565b602435906001600160a01b038216820361057657565b90601f8019910116810190811067ffffffffffffffff821117610c7e57604052565b67ffffffffffffffff8111610c7e57601f01601f191660200190565b6005548110156127225760056000527f036b6384b5eca791c62761152d0c79bb0604c104a5fb6f4eb0703f3154bb3db00190600090565b634e487b7160e01b600052603260045260246000fd5b6004548110156127225760046000527f8a35acfbc15ff81a39ae7d344fd709f28e8600b4aa8c65c6b64bfe7fe36bd19b0190600090565b9190820180921161094f57565b1561278357565b60405162461bcd60e51b815260206004820152601d60248201527f4a61636b706f742069732063757272656e746c792072756e6e696e67210000006044820152606490fd5b9081602091031261057657516001600160801b03811681036105765790565b9190820391821161094f57565b3d1561281f573d90612805826126cf565b9161281360405193846126ad565b82523d6000602084013e565b606090565b1561282b57565b60405162461bcd60e51b815260206004820152601760248201527f496e76616c6964207269736b2070657263656e746167650000000000000000006044820152606490fd5b811561287a570490565b634e487b7160e01b600052601260045260246000fd5b8181029291811591840414171561094f57565b156128aa57565b60405162461bcd60e51b815260206004820152601060248201526f4c50206973206e6f742061637469766560801b6044820152606490fd5b156128e957565b60405162461bcd60e51b81526020600482015260126024820152711314081a5b99195e081b9bdd08199bdd5b9960721b6044820152606490fd5b60055480156129515760001901612939816126eb565b81549060018060a01b039060031b1b19169055600555565b634e487b7160e01b600052603160045260246000fd5b600033815260039060036020526040812091600383019182549261298d60ff85166128a3565b6001936001860154612a9457828654968160028201555560ff19169055600019928192600554935b848110612a61575b5050506129ce6000198414156128e2565b6000198201918211612a4d57506103ee612a09612a1f936129ef86946126eb565b90546001600160a01b039460039290921b1c8416916126eb565b612a11612923565b3390601a5460081c16612af6565b6040519081527febd480b822209fc7890cbdf5b21417b4aa0db6d18f10f47afc87c12d227b90e060203392a2565b634e487b7160e01b81526011600452602490fd5b612a6a816126eb565b905490831b1c6001600160a01b03163314612a865782016129b5565b9294505050913880806129bd565b5050928392506002915001557fd71ab63e9df325a911adc1b0732eb4baca8d0218e79bcd112acec661f33fa962339180a2565b604d811161094f57600a0a90565b600080516020613382833981519152546001600160a01b0316330361100b57565b60405163a9059cbb60e01b60208201526001600160a01b039092166024830152604480830193909352918152608081019167ffffffffffffffff831182841017610c7e57612b4692604052612c0f565b565b6040516323b872dd60e01b60208201526001600160a01b03928316602482015292909116604483015260648083019390935291815260a081019181831067ffffffffffffffff841117610c7e57612b4692604052612c0f565b6000805160206133a283398151915280546001600160a01b031990811690915560008051602061338283398151915280549182166001600160a01b0393841690811790915591167f8be0079c531659141344cd1fd0a4f28419497f9722a3daafe3b4186f6b6457e0600080a3565b906000602091828151910182855af11561099e576000513d612c6257506001600160a01b0381163b155b612c405750565b604051635274afe760e01b81526001600160a01b039091166004820152602490fd5b60011415612c39565b42600855600c5415612f1b57612c7f6130dc565b600b54600954908111612e105750612cbb7f3208da215cdfa0c44cf3d81565b27f57d4c505bf1a48e40957e53aaf3ba2aa8291600c549061320d565b6001600160a01b03612d4f81612cd0846132ac565b1692836001600160601b0360a01b600d541617600d55600b5493600052600260205260406000209360018501612d0782825461276f565b9055612d11612fba565b60085493600d5416945491604051958695869192608093969594919660a0840197845260018060a01b03166020840152604083015260608201520152565b0390a15b60005b600454811015612d9b5780612d6c600192612738565b838060a01b0391549060031b1c166000526002806020526040600020600081550160ff19815416905501612d56565b50600454600060045580612dcc575b506000600b5560006009556000600c556000600f556000601255612b46613022565b60046000527f8a35acfbc15ff81a39ae7d344fd709f28e8600b4aa8c65c6b64bfe7fe36bd19b908101905b818110612e045750612daa565b60008155600101612df7565b6127109081810291818304149015171561094f577f3208da215cdfa0c44cf3d81565b27f57d4c505bf1a48e40957e53aaf3ba2aa8291612e56612e5c9260065490612870565b9061320d565b600c548111612ec3576001600160a01b03612ebb81612e7a846132ac565b1692836001600160601b0360a01b600d541617600d5560095493600052600260205260406000209360018501612eb182825461276f565b9055612d11613222565b0390a1612d53565b600d80546001600160a01b031916905560a090612ede613222565b612ee6612fba565b60085490600180841b03600d5416906009549160405193845260208401526040830152606082015260006080820152a1612d53565b507f3208da215cdfa0c44cf3d81565b27f57d4c505bf1a48e40957e53aaf3ba2aa8260a0600954604051904282526000602083015260006040830152606082015260006080820152a1612f6c612fba565b6000600955612b46613022565b60ff7ff0c57e16840df040f15088dc2f81fe391c3923bec73e23a9662efc9c229c6a005460401c1615612fa857565b604051631afcd79f60e31b8152600490fd5b6000805b60055481101561301e578082612fd56001936126eb565b905490600391858060a01b0391831b1c1682528060205260ff604083209182015416613004575b505001612fbe565b838101906130148254825461276f565b9055558238612ffc565b5050565b6000805b60055481101561301e578061303c6001926126eb565b905490600391848060a01b0391831b1c169081855260209080825260409060ff8288209182015416613073575b5050505001613026565b7f14d1e9852fb8075cc7cf65ab53df7e7110c775fdc60cc33026d2871bd8bd8a91928154906130c760646130ab600286015485612890565b048093818b87015560096130c083825461276f565b90556127e7565b8093558351928352820152a238808080613069565b60098054156131f4576014546001600160a01b03919082161515806131e6575b6131bf575b60009160005b6005548110156131ab578161311b826126eb565b919054600392831b1c166000528060205260ff60406000209182015416613146575b50600101613107565b6131a4906001929561319160105461318b61318561317d613173601b549461316d86612ac7565b90612890565b8988015490612890565b8a5490612870565b91612ac7565b90612870565b9161319d83825461276f565b905561276f565b939061313d565b5050506131ba906010546127e7565b601055565b6131de6010546131d3600a820480926127e7565b60105560155461276f565b601555613101565b50601054601c5411156130fc565b50613203601054600b5461276f565b600b556000601055565b811561287a57066001810180911161094f5790565b60098054156132a9576000805b6005548110156132a457806132456001926126eb565b905490600391848060a01b0391831b1c1684528060205260ff604085209182015416613273575b500161322f565b61329c613295600b5461318b61318561317d613173601b549461316d86612ac7565b825461276f565b90553861326c565b505050565b50565b60008091600454925b8381106132d05750506016546001600160a01b031692915050565b6133046132dc82612738565b905460039190911b1c6001600160a01b0316600081815260026020526040902054909461276f565b928383111561331657506001016132b5565b935050505090565b90613345575080511561333357805190602001fd5b60405163d6bda27560e01b8152600490fd5b81511580613378575b613356575090565b604051639996b31560e01b81526001600160a01b039091166004820152602490fd5b50803b1561334e56fe9016d09d72d40fdae2fd8ceac6b6234c7706214fd39c1cd1e609a0528c199300237e158222e3e6968b72b9db0d8043aacf074ad9f650f0d1606b4d82ee432c00a26469706673582212206df0615aab27b18702cb5e4cb9fc95422f0b8a578eeb7a0122fafc8d1eebfd8964736f6c63430008170033",
  "devdoc": {
    "errors": {
      "AddressEmptyCode(address)": [
        {
          "details": "There's no code at `target` (it is not a contract)."
        }
      ],
      "ERC1967InvalidImplementation(address)": [
        {
          "details": "The `implementation` of the proxy is invalid."
        }
      ],
      "ERC1967NonPayable()": [
        {
          "details": "An upgrade function sees `msg.value > 0` that may be lost."
        }
      ],
      "FailedCall()": [
        {
          "details": "A call to an address target failed. The target may have reverted."
        }
      ],
      "InvalidInitialization()": [
        {
          "details": "The contract is already initialized."
        }
      ],
      "NotInitializing()": [
        {
          "details": "The contract is not initializing."
        }
      ],
      "OwnableInvalidOwner(address)": [
        {
          "details": "The owner is not a valid owner account. (eg. `address(0)`)"
        }
      ],
      "OwnableUnauthorizedAccount(address)": [
        {
          "details": "The caller account is not authorized to perform an operation."
        }
      ],
      "SafeERC20FailedOperation(address)": [
        {
          "details": "An operation with an ERC-20 token failed."
        }
      ],
      "UUPSUnauthorizedCallContext()": [
        {
          "details": "The call is from an unauthorized context."
        }
      ],
      "UUPSUnsupportedProxiableUUID(bytes32)": [
        {
          "details": "The storage `slot` is unsupported as a UUID."
        }
      ]
    },
    "events": {
      "Initialized(uint64)": {
        "details": "Triggered when the contract has been initialized or reinitialized."
      },
      "Upgraded(address)": {
        "details": "Emitted when the implementation is upgraded."
      }
    },
    "kind": "dev",
    "methods": {
      "acceptOwnership()": {
        "details": "The new owner accepts the ownership transfer."
      },
      "constructor": {
        "custom:oz-upgrades-unsafe-allow": "constructor"
      },
      "initialize(address,address,address,uint256)": {
        "details": "Initializes the contract with required parameters",
        "params": {
          "_entropyAddress": "Address of the Entropy contract for randomness",
          "_initialOwnerAddress": "Initial owner address (should be different from deployer)",
          "_ticketPrice": "Price of a single ticket (will be multiplied by token decimals)",
          "_token": "Address of the ERC20 token to use for tickets and rewards"
        }
      },
      "owner()": {
        "details": "Returns the address of the current owner."
      },
      "pendingOwner()": {
        "details": "Returns the address of the pending owner."
      },
      "proxiableUUID()": {
        "details": "Implementation of the ERC-1822 {proxiableUUID} function. This returns the storage slot used by the implementation. It is used to validate the implementation's compatibility when performing an upgrade. IMPORTANT: A proxy pointing at a proxiable contract should not be considered proxiable itself, because this risks bricking a proxy that upgrades to it, by delegating to itself until out of gas. Thus it is critical that this function revert if invoked through a proxy. This is guaranteed by the `notDelegated` modifier."
      },
      "renounceOwnership()": {
        "details": "Leaves the contract without owner. It will not be possible to call `onlyOwner` functions. Can only be called by the current owner. NOTE: Renouncing ownership will leave the contract without an owner, thereby disabling any functionality that is only available to the owner."
      },
      "transferOwnership(address)": {
        "details": "Starts the ownership transfer of the contract to a new account. Replaces the pending transfer if there is one. Can only be called by the current owner. Setting `newOwner` to the zero address is allowed; this can be used to cancel an initiated ownership transfer."
      },
      "upgradeToAndCall(address,bytes)": {
        "custom:oz-upgrades-unsafe-allow-reachable": "delegatecall",
        "details": "Upgrade the implementation of the proxy to `newImplementation`, and subsequently execute the function call encoded in `data`. Calls {_authorizeUpgrade}. Emits an {Upgraded} event."
      }
    },
    "version": 1
  },
  "userdoc": {
    "kind": "user",
    "methods": {},
    "version": 1
  },
  "storageLayout": {
    "storage": [
      {
        "astId": 2196,
        "contract": "contracts/BaseJackpot.sol:BaseJackpot",
        "label": "entropy",
        "offset": 0,
        "slot": "0",
        "type": "t_contract(IEntropy)4670"
      },
      {
        "astId": 2198,
        "contract": "contracts/BaseJackpot.sol:BaseJackpot",
        "label": "entropyProvider",
        "offset": 0,
        "slot": "1",
        "type": "t_address"
      },
      {
        "astId": 2212,
        "contract": "contracts/BaseJackpot.sol:BaseJackpot",
        "label": "usersInfo",
        "offset": 0,
        "slot": "2",
        "type": "t_mapping(t_address,t_struct(User)2386_storage)"
      },
      {
        "astId": 2217,
        "contract": "contracts/BaseJackpot.sol:BaseJackpot",
        "label": "lpsInfo",
        "offset": 0,
        "slot": "3",
        "type": "t_mapping(t_address,t_struct(LP)2207_storage)"
      },
      {
        "astId": 2220,
        "contract": "contracts/BaseJackpot.sol:BaseJackpot",
        "label": "activeUserAddresses",
        "offset": 0,
        "slot": "4",
        "type": "t_array(t_address)dyn_storage"
      },
      {
        "astId": 2223,
        "contract": "contracts/BaseJackpot.sol:BaseJackpot",
        "label": "activeLpAddresses",
        "offset": 0,
        "slot": "5",
        "type": "t_array(t_address)dyn_storage"
      },
      {
        "astId": 2225,
        "contract": "contracts/BaseJackpot.sol:BaseJackpot",
        "label": "ticketPrice",
        "offset": 0,
        "slot": "6",
        "type": "t_uint256"
      },
      {
        "astId": 2227,
        "contract": "contracts/BaseJackpot.sol:BaseJackpot",
        "label": "roundDurationInSeconds",
        "offset": 0,
        "slot": "7",
        "type": "t_uint256"
      },
      {
        "astId": 2229,
        "contract": "contracts/BaseJackpot.sol:BaseJackpot",
        "label": "lastJackpotEndTime",
        "offset": 0,
        "slot": "8",
        "type": "t_uint256"
      },
      {
        "astId": 2231,
        "contract": "contracts/BaseJackpot.sol:BaseJackpot",
        "label": "lpPoolTotal",
        "offset": 0,
        "slot": "9",
        "type": "t_uint256"
      },
      {
        "astId": 2233,
        "contract": "contracts/BaseJackpot.sol:BaseJackpot",
        "label": "lpPoolCap",
        "offset": 0,
        "slot": "10",
        "type": "t_uint256"
      },
      {
        "astId": 2235,
        "contract": "contracts/BaseJackpot.sol:BaseJackpot",
        "label": "userPoolTotal",
        "offset": 0,
        "slot": "11",
        "type": "t_uint256"
      },
      {
        "astId": 2237,
        "contract": "contracts/BaseJackpot.sol:BaseJackpot",
        "label": "ticketCountTotalBps",
        "offset": 0,
        "slot": "12",
        "type": "t_uint256"
      },
      {
        "astId": 2239,
        "contract": "contracts/BaseJackpot.sol:BaseJackpot",
        "label": "lastWinnerAddress",
        "offset": 0,
        "slot": "13",
        "type": "t_address"
      },
      {
        "astId": 2241,
        "contract": "contracts/BaseJackpot.sol:BaseJackpot",
        "label": "jackpotLock",
        "offset": 20,
        "slot": "13",
        "type": "t_bool"
      },
      {
        "astId": 2243,
        "contract": "contracts/BaseJackpot.sol:BaseJackpot",
        "label": "entropyCallbackLock",
        "offset": 21,
        "slot": "13",
        "type": "t_bool"
      },
      {
        "astId": 2245,
        "contract": "contracts/BaseJackpot.sol:BaseJackpot",
        "label": "feeBps",
        "offset": 0,
        "slot": "14",
        "type": "t_uint256"
      },
      {
        "astId": 2247,
        "contract": "contracts/BaseJackpot.sol:BaseJackpot",
        "label": "allFeesTotal",
        "offset": 0,
        "slot": "15",
        "type": "t_uint256"
      },
      {
        "astId": 2249,
        "contract": "contracts/BaseJackpot.sol:BaseJackpot",
        "label": "lpFeesTotal",
        "offset": 0,
        "slot": "16",
        "type": "t_uint256"
      },
      {
        "astId": 2251,
        "contract": "contracts/BaseJackpot.sol:BaseJackpot",
        "label": "referralFeeBps",
        "offset": 0,
        "slot": "17",
        "type": "t_uint256"
      },
      {
        "astId": 2253,
        "contract": "contracts/BaseJackpot.sol:BaseJackpot",
        "label": "referralFeesTotal",
        "offset": 0,
        "slot": "18",
        "type": "t_uint256"
      },
      {
        "astId": 2257,
        "contract": "contracts/BaseJackpot.sol:BaseJackpot",
        "label": "referralFeesClaimable",
        "offset": 0,
        "slot": "19",
        "type": "t_mapping(t_address,t_uint256)"
      },
      {
        "astId": 2259,
        "contract": "contracts/BaseJackpot.sol:BaseJackpot",
        "label": "protocolFeeAddress",
        "offset": 0,
        "slot": "20",
        "type": "t_address"
      },
      {
        "astId": 2261,
        "contract": "contracts/BaseJackpot.sol:BaseJackpot",
        "label": "protocolFeeClaimable",
        "offset": 0,
        "slot": "21",
        "type": "t_uint256"
      },
      {
        "astId": 2263,
        "contract": "contracts/BaseJackpot.sol:BaseJackpot",
        "label": "fallbackWinner",
        "offset": 0,
        "slot": "22",
        "type": "t_address"
      },
      {
        "astId": 2265,
        "contract": "contracts/BaseJackpot.sol:BaseJackpot",
        "label": "lpLimit",
        "offset": 0,
        "slot": "23",
        "type": "t_uint256"
      },
      {
        "astId": 2267,
        "contract": "contracts/BaseJackpot.sol:BaseJackpot",
        "label": "minLpDeposit",
        "offset": 0,
        "slot": "24",
        "type": "t_uint256"
      },
      {
        "astId": 2269,
        "contract": "contracts/BaseJackpot.sol:BaseJackpot",
        "label": "userLimit",
        "offset": 0,
        "slot": "25",
        "type": "t_uint256"
      },
      {
        "astId": 2271,
        "contract": "contracts/BaseJackpot.sol:BaseJackpot",
        "label": "allowPurchasing",
        "offset": 0,
        "slot": "26",
        "type": "t_bool"
      },
      {
        "astId": 2274,
        "contract": "contracts/BaseJackpot.sol:BaseJackpot",
        "label": "token",
        "offset": 1,
        "slot": "26",
        "type": "t_contract(IERC20)1316"
      },
      {
        "astId": 2276,
        "contract": "contracts/BaseJackpot.sol:BaseJackpot",
        "label": "tokenDecimals",
        "offset": 0,
        "slot": "27",
        "type": "t_uint256"
      },
      {
        "astId": 2278,
        "contract": "contracts/BaseJackpot.sol:BaseJackpot",
        "label": "protocolFeeThreshold",
        "offset": 0,
        "slot": "28",
        "type": "t_uint256"
      },
      {
        "astId": 2282,
        "contract": "contracts/BaseJackpot.sol:BaseJackpot",
        "label": "__gap",
        "offset": 0,
        "slot": "29",
        "type": "t_array(t_uint256)50_storage"
      }
    ],
    "types": {
      "t_address": {
        "encoding": "inplace",
        "label": "address",
        "numberOfBytes": "20"
      },
      "t_array(t_address)dyn_storage": {
        "base": "t_address",
        "encoding": "dynamic_array",
        "label": "address[]",
        "numberOfBytes": "32"
      },
      "t_array(t_uint256)50_storage": {
        "base": "t_uint256",
        "encoding": "inplace",
        "label": "uint256[50]",
        "numberOfBytes": "1600"
      },
      "t_bool": {
        "encoding": "inplace",
        "label": "bool",
        "numberOfBytes": "1"
      },
      "t_contract(IERC20)1316": {
        "encoding": "inplace",
        "label": "contract IERC20",
        "numberOfBytes": "20"
      },
      "t_contract(IEntropy)4670": {
        "encoding": "inplace",
        "label": "contract IEntropy",
        "numberOfBytes": "20"
      },
      "t_mapping(t_address,t_struct(LP)2207_storage)": {
        "encoding": "mapping",
        "key": "t_address",
        "label": "mapping(address => struct BaseJackpot.LP)",
        "numberOfBytes": "32",
        "value": "t_struct(LP)2207_storage"
      },
      "t_mapping(t_address,t_struct(User)2386_storage)": {
        "encoding": "mapping",
        "key": "t_address",
        "label": "mapping(address => struct BaseJackpot.User)",
        "numberOfBytes": "32",
        "value": "t_struct(User)2386_storage"
      },
      "t_mapping(t_address,t_uint256)": {
        "encoding": "mapping",
        "key": "t_address",
        "label": "mapping(address => uint256)",
        "numberOfBytes": "32",
        "value": "t_uint256"
      },
      "t_struct(LP)2207_storage": {
        "encoding": "inplace",
        "label": "struct BaseJackpot.LP",
        "members": [
          {
            "astId": 2200,
            "contract": "contracts/BaseJackpot.sol:BaseJackpot",
            "label": "principal",
            "offset": 0,
            "slot": "0",
            "type": "t_uint256"
          },
          {
            "astId": 2202,
            "contract": "contracts/BaseJackpot.sol:BaseJackpot",
            "label": "stake",
            "offset": 0,
            "slot": "1",
            "type": "t_uint256"
          },
          {
            "astId": 2204,
            "contract": "contracts/BaseJackpot.sol:BaseJackpot",
            "label": "riskPercentage",
            "offset": 0,
            "slot": "2",
            "type": "t_uint256"
          },
          {
            "astId": 2206,
            "contract": "contracts/BaseJackpot.sol:BaseJackpot",
            "label": "active",
            "offset": 0,
            "slot": "3",
            "type": "t_bool"
          }
        ],
        "numberOfBytes": "128"
      },
      "t_struct(User)2386_storage": {
        "encoding": "inplace",
        "label": "struct BaseJackpot.User",
        "members": [
          {
            "astId": 2381,
            "contract": "contracts/BaseJackpot.sol:BaseJackpot",
            "label": "ticketsPurchasedTotalBps",
            "offset": 0,
            "slot": "0",
            "type": "t_uint256"
          },
          {
            "astId": 2383,
            "contract": "contracts/BaseJackpot.sol:BaseJackpot",
            "label": "winningsClaimable",
            "offset": 0,
            "slot": "1",
            "type": "t_uint256"
          },
          {
            "astId": 2385,
            "contract": "contracts/BaseJackpot.sol:BaseJackpot",
            "label": "active",
            "offset": 0,
            "slot": "2",
            "type": "t_bool"
          }
        ],
        "numberOfBytes": "96"
      },
      "t_uint256": {
        "encoding": "inplace",
        "label": "uint256",
        "numberOfBytes": "32"
      }
    }
  }
}