{
  "address": "0x3EA4857E2402D9671a7289233024f00728Fa8314",
  "abi": [
    {
      "inputs": [],
      "stateMutability": "nonpayable",
      "type": "constructor"
    },
    {
      "inputs": [
        {
          "internalType": "address",
          "name": "target",
          "type": "address"
        }
      ],
      "name": "AddressEmptyCode",
      "type": "error"
    },
    {
      "inputs": [
        {
          "internalType": "address",
          "name": "implementation",
          "type": "address"
        }
      ],
      "name": "ERC1967InvalidImplementation",
      "type": "error"
    },
    {
      "inputs": [],
      "name": "ERC1967NonPayable",
      "type": "error"
    },
    {
      "inputs": [],
      "name": "FailedCall",
      "type": "error"
    },
    {
      "inputs": [],
      "name": "InvalidInitialization",
      "type": "error"
    },
    {
      "inputs": [],
      "name": "NotInitializing",
      "type": "error"
    },
    {
      "inputs": [
        {
          "internalType": "address",
          "name": "owner",
          "type": "address"
        }
      ],
      "name": "OwnableInvalidOwner",
      "type": "error"
    },
    {
      "inputs": [
        {
          "internalType": "address",
          "name": "account",
          "type": "address"
        }
      ],
      "name": "OwnableUnauthorizedAccount",
      "type": "error"
    },
    {
      "inputs": [
        {
          "internalType": "address",
          "name": "token",
          "type": "address"
        }
      ],
      "name": "SafeERC20FailedOperation",
      "type": "error"
    },
    {
      "inputs": [],
      "name": "UUPSUnauthorizedCallContext",
      "type": "error"
    },
    {
      "inputs": [
        {
          "internalType": "bytes32",
          "name": "slot",
          "type": "bytes32"
        }
      ],
      "name": "UUPSUnsupportedProxiableUUID",
      "type": "error"
    },
    {
      "anonymous": false,
      "inputs": [
        {
          "indexed": false,
          "internalType": "uint64",
          "name": "sequenceNumber",
          "type": "uint64"
        },
        {
          "indexed": false,
          "internalType": "bytes32",
          "name": "randomNumber",
          "type": "bytes32"
        }
      ],
      "name": "EntropyResult",
      "type": "event"
    },
    {
      "anonymous": false,
      "inputs": [
        {
          "indexed": false,
          "internalType": "uint64",
          "name": "version",
          "type": "uint64"
        }
      ],
      "name": "Initialized",
      "type": "event"
    },
    {
      "anonymous": false,
      "inputs": [
        {
          "indexed": false,
          "internalType": "uint256",
          "name": "time",
          "type": "uint256"
        },
        {
          "indexed": false,
          "internalType": "address",
          "name": "winner",
          "type": "address"
        },
        {
          "indexed": false,
          "internalType": "uint256",
          "name": "winningTicket",
          "type": "uint256"
        },
        {
          "indexed": false,
          "internalType": "uint256",
          "name": "winAmount",
          "type": "uint256"
        },
        {
          "indexed": false,
          "internalType": "uint256",
          "name": "ticketsPurchasedTotalBps",
          "type": "uint256"
        }
      ],
      "name": "JackpotRun",
      "type": "event"
    },
    {
      "anonymous": false,
      "inputs": [
        {
          "indexed": true,
          "internalType": "address",
          "name": "user",
          "type": "address"
        }
      ],
      "name": "JackpotRunRequested",
      "type": "event"
    },
    {
      "anonymous": false,
      "inputs": [
        {
          "indexed": true,
          "internalType": "address",
          "name": "lpAddress",
          "type": "address"
        },
        {
          "indexed": false,
          "internalType": "uint256",
          "name": "amount",
          "type": "uint256"
        },
        {
          "indexed": false,
          "internalType": "uint256",
          "name": "riskPercentage",
          "type": "uint256"
        }
      ],
      "name": "LpDeposit",
      "type": "event"
    },
    {
      "anonymous": false,
      "inputs": [
        {
          "indexed": true,
          "internalType": "address",
          "name": "lpAddress",
          "type": "address"
        },
        {
          "indexed": false,
          "internalType": "uint256",
          "name": "principalAmount",
          "type": "uint256"
        }
      ],
      "name": "LpPrincipalWithdrawal",
      "type": "event"
    },
    {
      "anonymous": false,
      "inputs": [
        {
          "indexed": true,
          "internalType": "address",
          "name": "lpAddress",
          "type": "address"
        },
        {
          "indexed": false,
          "internalType": "uint256",
          "name": "principal",
          "type": "uint256"
        },
        {
          "indexed": false,
          "internalType": "uint256",
          "name": "stake",
          "type": "uint256"
        }
      ],
      "name": "LpRebalance",
      "type": "event"
    },
    {
      "anonymous": false,
      "inputs": [
        {
          "indexed": true,
          "internalType": "address",
          "name": "lpAddress",
          "type": "address"
        },
        {
          "indexed": false,
          "internalType": "uint256",
          "name": "riskPercentage",
          "type": "uint256"
        }
      ],
      "name": "LpRiskPercentageAdjustment",
      "type": "event"
    },
    {
      "anonymous": false,
      "inputs": [
        {
          "indexed": true,
          "internalType": "address",
          "name": "lpAddress",
          "type": "address"
        }
      ],
      "name": "LpStakeWithdrawal",
      "type": "event"
    },
    {
      "anonymous": false,
      "inputs": [
        {
          "indexed": true,
          "internalType": "address",
          "name": "previousOwner",
          "type": "address"
        },
        {
          "indexed": true,
          "internalType": "address",
          "name": "newOwner",
          "type": "address"
        }
      ],
      "name": "OwnershipTransferStarted",
      "type": "event"
    },
    {
      "anonymous": false,
      "inputs": [
        {
          "indexed": true,
          "internalType": "address",
          "name": "previousOwner",
          "type": "address"
        },
        {
          "indexed": true,
          "internalType": "address",
          "name": "newOwner",
          "type": "address"
        }
      ],
      "name": "OwnershipTransferred",
      "type": "event"
    },
    {
      "anonymous": false,
      "inputs": [
        {
          "indexed": false,
          "internalType": "uint256",
          "name": "amount",
          "type": "uint256"
        }
      ],
      "name": "ProtocolFeeWithdrawal",
      "type": "event"
    },
    {
      "anonymous": false,
      "inputs": [
        {
          "indexed": true,
          "internalType": "address",
          "name": "implementation",
          "type": "address"
        }
      ],
      "name": "Upgraded",
      "type": "event"
    },
    {
      "anonymous": false,
      "inputs": [
        {
          "indexed": true,
          "internalType": "address",
          "name": "user",
          "type": "address"
        },
        {
          "indexed": false,
          "internalType": "uint256",
          "name": "amount",
          "type": "uint256"
        }
      ],
      "name": "UserReferralFeeWithdrawal",
      "type": "event"
    },
    {
      "anonymous": false,
      "inputs": [
        {
          "indexed": true,
          "internalType": "address",
          "name": "recipient",
          "type": "address"
        },
        {
          "indexed": false,
          "internalType": "uint256",
          "name": "ticketsPurchasedTotalBps",
          "type": "uint256"
        },
        {
          "indexed": true,
          "internalType": "address",
          "name": "referrer",
          "type": "address"
        },
        {
          "indexed": true,
          "internalType": "address",
          "name": "buyer",
          "type": "address"
        }
      ],
      "name": "UserTicketPurchase",
      "type": "event"
    },
    {
      "anonymous": false,
      "inputs": [
        {
          "indexed": true,
          "internalType": "address",
          "name": "user",
          "type": "address"
        },
        {
          "indexed": false,
          "internalType": "uint256",
          "name": "amount",
          "type": "uint256"
        }
      ],
      "name": "UserWinWithdrawal",
      "type": "event"
    },
    {
      "inputs": [],
      "name": "UPGRADE_INTERFACE_VERSION",
      "outputs": [
        {
          "internalType": "string",
          "name": "",
          "type": "string"
        }
      ],
      "stateMutability": "view",
      "type": "function"
    },
    {
      "inputs": [
        {
          "internalType": "uint64",
          "name": "sequence",
          "type": "uint64"
        },
        {
          "internalType": "address",
          "name": "provider",
          "type": "address"
        },
        {
          "internalType": "bytes32",
          "name": "randomNumber",
          "type": "bytes32"
        }
      ],
      "name": "_entropyCallback",
      "outputs": [],
      "stateMutability": "nonpayable",
      "type": "function"
    },
    {
      "inputs": [],
      "name": "acceptOwnership",
      "outputs": [],
      "stateMutability": "nonpayable",
      "type": "function"
    },
    {
      "inputs": [
        {
          "internalType": "uint256",
          "name": "",
          "type": "uint256"
        }
      ],
      "name": "activeLpAddresses",
      "outputs": [
        {
          "internalType": "address",
          "name": "",
          "type": "address"
        }
      ],
      "stateMutability": "view",
      "type": "function"
    },
    {
      "inputs": [],
      "name": "allFeesTotal",
      "outputs": [
        {
          "internalType": "uint256",
          "name": "",
          "type": "uint256"
        }
      ],
      "stateMutability": "view",
      "type": "function"
    },
    {
      "inputs": [],
      "name": "allowPurchasing",
      "outputs": [
        {
          "internalType": "bool",
          "name": "",
          "type": "bool"
        }
      ],
      "stateMutability": "view",
      "type": "function"
    },
    {
      "inputs": [
        {
          "internalType": "address[]",
          "name": "lpAddresses",
          "type": "address[]"
        }
      ],
      "name": "deactivateInactiveLPs",
      "outputs": [],
      "stateMutability": "nonpayable",
      "type": "function"
    },
    {
      "inputs": [],
      "name": "entropyCallbackLock",
      "outputs": [
        {
          "internalType": "bool",
          "name": "",
          "type": "bool"
        }
      ],
      "stateMutability": "view",
      "type": "function"
    },
    {
      "inputs": [],
      "name": "fallbackWinner",
      "outputs": [
        {
          "internalType": "address",
          "name": "",
          "type": "address"
        }
      ],
      "stateMutability": "view",
      "type": "function"
    },
    {
      "inputs": [],
      "name": "feeBps",
      "outputs": [
        {
          "internalType": "uint256",
          "name": "",
          "type": "uint256"
        }
      ],
      "stateMutability": "view",
      "type": "function"
    },
    {
      "inputs": [],
      "name": "forceReleaseJackpotLock",
      "outputs": [],
      "stateMutability": "nonpayable",
      "type": "function"
    },
    {
      "inputs": [],
      "name": "getJackpotFee",
      "outputs": [
        {
          "internalType": "uint256",
          "name": "fee",
          "type": "uint256"
        }
      ],
      "stateMutability": "view",
      "type": "function"
    },
    {
      "inputs": [
        {
          "internalType": "address",
          "name": "_entropyAddress",
          "type": "address"
        },
        {
          "internalType": "address",
          "name": "_initialOwnerAddress",
          "type": "address"
        },
        {
          "internalType": "address",
          "name": "_token",
          "type": "address"
        },
        {
          "internalType": "uint256",
          "name": "_ticketPrice",
          "type": "uint256"
        }
      ],
      "name": "initialize",
      "outputs": [],
      "stateMutability": "nonpayable",
      "type": "function"
    },
    {
      "inputs": [],
      "name": "jackpotLock",
      "outputs": [
        {
          "internalType": "bool",
          "name": "",
          "type": "bool"
        }
      ],
      "stateMutability": "view",
      "type": "function"
    },
    {
      "inputs": [],
      "name": "lastJackpotEndTime",
      "outputs": [
        {
          "internalType": "uint256",
          "name": "",
          "type": "uint256"
        }
      ],
      "stateMutability": "view",
      "type": "function"
    },
    {
      "inputs": [],
      "name": "lastWinnerAddress",
      "outputs": [
        {
          "internalType": "address",
          "name": "",
          "type": "address"
        }
      ],
      "stateMutability": "view",
      "type": "function"
    },
    {
      "inputs": [
        {
          "internalType": "uint256",
          "name": "riskPercentage",
          "type": "uint256"
        }
      ],
      "name": "lpAdjustRiskPercentage",
      "outputs": [],
      "stateMutability": "nonpayable",
      "type": "function"
    },
    {
      "inputs": [
        {
          "internalType": "uint256",
          "name": "riskPercentage",
          "type": "uint256"
        },
        {
          "internalType": "uint256",
          "name": "value",
          "type": "uint256"
        }
      ],
      "name": "lpDeposit",
      "outputs": [],
      "stateMutability": "nonpayable",
      "type": "function"
    },
    {
      "inputs": [],
      "name": "lpFeesTotal",
      "outputs": [
        {
          "internalType": "uint256",
          "name": "",
          "type": "uint256"
        }
      ],
      "stateMutability": "view",
      "type": "function"
    },
    {
      "inputs": [],
      "name": "lpLimit",
      "outputs": [
        {
          "internalType": "uint256",
          "name": "",
          "type": "uint256"
        }
      ],
      "stateMutability": "view",
      "type": "function"
    },
    {
      "inputs": [],
      "name": "lpPoolCap",
      "outputs": [
        {
          "internalType": "uint256",
          "name": "",
          "type": "uint256"
        }
      ],
      "stateMutability": "view",
      "type": "function"
    },
    {
      "inputs": [],
      "name": "lpPoolTotal",
      "outputs": [
        {
          "internalType": "uint256",
          "name": "",
          "type": "uint256"
        }
      ],
      "stateMutability": "view",
      "type": "function"
    },
    {
      "inputs": [
        {
          "internalType": "address",
          "name": "",
          "type": "address"
        }
      ],
      "name": "lpsInfo",
      "outputs": [
        {
          "internalType": "uint256",
          "name": "principal",
          "type": "uint256"
        },
        {
          "internalType": "uint256",
          "name": "stake",
          "type": "uint256"
        },
        {
          "internalType": "uint256",
          "name": "riskPercentage",
          "type": "uint256"
        },
        {
          "internalType": "bool",
          "name": "active",
          "type": "bool"
        }
      ],
      "stateMutability": "view",
      "type": "function"
    },
    {
      "inputs": [],
      "name": "minLpDeposit",
      "outputs": [
        {
          "internalType": "uint256",
          "name": "",
          "type": "uint256"
        }
      ],
      "stateMutability": "view",
      "type": "function"
    },
    {
      "inputs": [],
      "name": "owner",
      "outputs": [
        {
          "internalType": "address",
          "name": "",
          "type": "address"
        }
      ],
      "stateMutability": "view",
      "type": "function"
    },
    {
      "inputs": [],
      "name": "pendingOwner",
      "outputs": [
        {
          "internalType": "address",
          "name": "",
          "type": "address"
        }
      ],
      "stateMutability": "view",
      "type": "function"
    },
    {
      "inputs": [],
      "name": "protocolFeeAddress",
      "outputs": [
        {
          "internalType": "address",
          "name": "",
          "type": "address"
        }
      ],
      "stateMutability": "view",
      "type": "function"
    },
    {
      "inputs": [],
      "name": "protocolFeeClaimable",
      "outputs": [
        {
          "internalType": "uint256",
          "name": "",
          "type": "uint256"
        }
      ],
      "stateMutability": "view",
      "type": "function"
    },
    {
      "inputs": [],
      "name": "protocolFeeThreshold",
      "outputs": [
        {
          "internalType": "uint256",
          "name": "",
          "type": "uint256"
        }
      ],
      "stateMutability": "view",
      "type": "function"
    },
    {
      "inputs": [],
      "name": "proxiableUUID",
      "outputs": [
        {
          "internalType": "bytes32",
          "name": "",
          "type": "bytes32"
        }
      ],
      "stateMutability": "view",
      "type": "function"
    },
    {
      "inputs": [
        {
          "internalType": "address",
          "name": "referrer",
          "type": "address"
        },
        {
          "internalType": "uint256",
          "name": "value",
          "type": "uint256"
        },
        {
          "internalType": "address",
          "name": "recipient",
          "type": "address"
        }
      ],
      "name": "purchaseTickets",
      "outputs": [],
      "stateMutability": "nonpayable",
      "type": "function"
    },
    {
      "inputs": [],
      "name": "referralFeeBps",
      "outputs": [
        {
          "internalType": "uint256",
          "name": "",
          "type": "uint256"
        }
      ],
      "stateMutability": "view",
      "type": "function"
    },
    {
      "inputs": [
        {
          "internalType": "address",
          "name": "",
          "type": "address"
        }
      ],
      "name": "referralFeesClaimable",
      "outputs": [
        {
          "internalType": "uint256",
          "name": "",
          "type": "uint256"
        }
      ],
      "stateMutability": "view",
      "type": "function"
    },
    {
      "inputs": [],
      "name": "referralFeesTotal",
      "outputs": [
        {
          "internalType": "uint256",
          "name": "",
          "type": "uint256"
        }
      ],
      "stateMutability": "view",
      "type": "function"
    },
    {
      "inputs": [],
      "name": "renounceOwnership",
      "outputs": [],
      "stateMutability": "nonpayable",
      "type": "function"
    },
    {
      "inputs": [],
      "name": "roundDurationInSeconds",
      "outputs": [
        {
          "internalType": "uint256",
          "name": "",
          "type": "uint256"
        }
      ],
      "stateMutability": "view",
      "type": "function"
    },
    {
      "inputs": [
        {
          "internalType": "bytes32",
          "name": "userRandomNumber",
          "type": "bytes32"
        }
      ],
      "name": "runJackpot",
      "outputs": [],
      "stateMutability": "payable",
      "type": "function"
    },
    {
      "inputs": [
        {
          "internalType": "bool",
          "name": "_allow",
          "type": "bool"
        }
      ],
      "name": "setAllowPurchasing",
      "outputs": [],
      "stateMutability": "nonpayable",
      "type": "function"
    },
    {
      "inputs": [
        {
          "internalType": "address",
          "name": "_fallbackWinner",
          "type": "address"
        }
      ],
      "name": "setFallbackWinner",
      "outputs": [],
      "stateMutability": "nonpayable",
      "type": "function"
    },
    {
      "inputs": [
        {
          "internalType": "uint256",
          "name": "_feeBps",
          "type": "uint256"
        }
      ],
      "name": "setFeeBps",
      "outputs": [],
      "stateMutability": "nonpayable",
      "type": "function"
    },
    {
      "inputs": [
        {
          "internalType": "uint256",
          "name": "_lpLimit",
          "type": "uint256"
        }
      ],
      "name": "setLpLimit",
      "outputs": [],
      "stateMutability": "nonpayable",
      "type": "function"
    },
    {
      "inputs": [
        {
          "internalType": "uint256",
          "name": "_cap",
          "type": "uint256"
        }
      ],
      "name": "setLpPoolCap",
      "outputs": [],
      "stateMutability": "nonpayable",
      "type": "function"
    },
    {
      "inputs": [
        {
          "internalType": "uint256",
          "name": "_minDeposit",
          "type": "uint256"
        }
      ],
      "name": "setMinLpDeposit",
      "outputs": [],
      "stateMutability": "nonpayable",
      "type": "function"
    },
    {
      "inputs": [
        {
          "internalType": "address",
          "name": "_protocolFeeAddress",
          "type": "address"
        }
      ],
      "name": "setProtocolFeeAddress",
      "outputs": [],
      "stateMutability": "nonpayable",
      "type": "function"
    },
    {
      "inputs": [
        {
          "internalType": "uint256",
          "name": "_protocolFeeThreshold",
          "type": "uint256"
        }
      ],
      "name": "setProtocolFeeThreshold",
      "outputs": [],
      "stateMutability": "nonpayable",
      "type": "function"
    },
    {
      "inputs": [
        {
          "internalType": "uint256",
          "name": "_referralFeeBps",
          "type": "uint256"
        }
      ],
      "name": "setReferralFeeBps",
      "outputs": [],
      "stateMutability": "nonpayable",
      "type": "function"
    },
    {
      "inputs": [
        {
          "internalType": "uint256",
          "name": "_newDuration",
          "type": "uint256"
        }
      ],
      "name": "setRoundDurationInSeconds",
      "outputs": [],
      "stateMutability": "nonpayable",
      "type": "function"
    },
    {
      "inputs": [
        {
          "internalType": "uint256",
          "name": "_newTicketPrice",
          "type": "uint256"
        }
      ],
      "name": "setTicketPrice",
      "outputs": [],
      "stateMutability": "nonpayable",
      "type": "function"
    },
    {
      "inputs": [
        {
          "internalType": "uint256",
          "name": "_userLimit",
          "type": "uint256"
        }
      ],
      "name": "setUserLimit",
      "outputs": [],
      "stateMutability": "nonpayable",
      "type": "function"
    },
    {
      "inputs": [],
      "name": "ticketCountTotalBps",
      "outputs": [
        {
          "internalType": "uint256",
          "name": "",
          "type": "uint256"
        }
      ],
      "stateMutability": "view",
      "type": "function"
    },
    {
      "inputs": [],
      "name": "ticketPrice",
      "outputs": [
        {
          "internalType": "uint256",
          "name": "",
          "type": "uint256"
        }
      ],
      "stateMutability": "view",
      "type": "function"
    },
    {
      "inputs": [],
      "name": "token",
      "outputs": [
        {
          "internalType": "contract IERC20",
          "name": "",
          "type": "address"
        }
      ],
      "stateMutability": "view",
      "type": "function"
    },
    {
      "inputs": [],
      "name": "tokenDecimals",
      "outputs": [
        {
          "internalType": "uint256",
          "name": "",
          "type": "uint256"
        }
      ],
      "stateMutability": "view",
      "type": "function"
    },
    {
      "inputs": [
        {
          "internalType": "address",
          "name": "newOwner",
          "type": "address"
        }
      ],
      "name": "transferOwnership",
      "outputs": [],
      "stateMutability": "nonpayable",
      "type": "function"
    },
    {
      "inputs": [
        {
          "internalType": "address",
          "name": "newImplementation",
          "type": "address"
        },
        {
          "internalType": "bytes",
          "name": "data",
          "type": "bytes"
        }
      ],
      "name": "upgradeToAndCall",
      "outputs": [],
      "stateMutability": "payable",
      "type": "function"
    },
    {
      "inputs": [],
      "name": "userLimit",
      "outputs": [
        {
          "internalType": "uint256",
          "name": "",
          "type": "uint256"
        }
      ],
      "stateMutability": "view",
      "type": "function"
    },
    {
      "inputs": [],
      "name": "userPoolTotal",
      "outputs": [
        {
          "internalType": "uint256",
          "name": "",
          "type": "uint256"
        }
      ],
      "stateMutability": "view",
      "type": "function"
    },
    {
      "inputs": [
        {
          "internalType": "address",
          "name": "",
          "type": "address"
        }
      ],
      "name": "usersInfo",
      "outputs": [
        {
          "internalType": "uint256",
          "name": "ticketsPurchasedTotalBps",
          "type": "uint256"
        },
        {
          "internalType": "uint256",
          "name": "winningsClaimable",
          "type": "uint256"
        },
        {
          "internalType": "bool",
          "name": "active",
          "type": "bool"
        }
      ],
      "stateMutability": "view",
      "type": "function"
    },
    {
      "inputs": [],
      "name": "withdrawAllLP",
      "outputs": [],
      "stateMutability": "nonpayable",
      "type": "function"
    },
    {
      "inputs": [],
      "name": "withdrawProtocolFees",
      "outputs": [],
      "stateMutability": "nonpayable",
      "type": "function"
    },
    {
      "inputs": [],
      "name": "withdrawReferralFees",
      "outputs": [],
      "stateMutability": "nonpayable",
      "type": "function"
    },
    {
      "inputs": [],
      "name": "withdrawWinnings",
      "outputs": [],
      "stateMutability": "nonpayable",
      "type": "function"
    }
  ],
  "transactionHash": "0x61b1a0c5e2996eab9a86d65bda722d2cf368edae59cd2b45d0aaa046742ccaf7",
  "args": [],
  "numDeployments": 1,
  "solcInputHash": "3285774ee26c4676125499d0ec3f658d",
  "bytecode": "0x60a08060405234620000d157306080527ff0c57e16840df040f15088dc2f81fe391c3923bec73e23a9662efc9c229c6a009081549060ff8260401c16620000c257506001600160401b036002600160401b0319828216016200007c575b6040516133f59081620000d7823960805181818161177a0152611f240152f35b6001600160401b031990911681179091556040519081527fc7f505b2f371ae2175ee4913f4499e1f2633a7b5936321eed1cdaeb6115181d290602090a13880806200005c565b63f92ee8a960e01b8152600490fd5b600080fdfe6080604052600436101561001257600080fd5b60003560e01c80630e81b6cf146126485780631209b1f61461262a5780631598165014612609578063173608e71461254557806318254372146125275780631e7b0c01146125065780631ec41163146124dd57806324a9d853146124bf57806328ed54df146124a15780632c8bbb161461223f5780632cdcb677146122215780633169141f146121fe5780633adc6272146121dd5780633b97e856146121bf57806341ea97991461219657806344a1bcb91461217857806346ed010214612152578063470328b5146120f15780634a7c01ec146120d35780634f1ef28614611ea857806351ab9251146119d057806352a5f1f8146117e457806352d1902d146117675780635b470e6e146117465780635d0eaaaf146116f05780635edd2c64146116d257806360b80331146116b1578063630f0b1c146116775780636b7b9112146116345780636f47edb5146115fb578063715018a61461157a57806371ccd3fc1461116357806372c27b62146110825780637480494f146110645780637618f02e1461102157806379ba509714610fce57806385eb72b814610f3c5780638795cccb14610e37578063879b92d614610e195780638c6a337614610d855780638d2459b014610d5f5780638da5cb5b14610d295780638e98a1d314610d0b57806392646c2014610cc9578063a2790cd514610cab578063a6c21c3714610c92578063ad3cb1cc14610be7578063c147b47114610bc9578063c988bdc314610ba8578063c9cec0ab14610b2a578063cc42e83a14610a70578063cce516b714610a47578063cf756fdf14610705578063d31ed2c4146106e7578063d4bdb266146106c9578063e30c397814610693578063e5ca0fd714610675578063f2ac00e514610657578063f2fde38b146105d0578063fc0c546a146105a3578063fcbf86721461057b5763fed5fbc9146102c657600080fd5b34610576576020806003193601126105765767ffffffffffffffff806004351161057657366023600435011215610576576004356004013511610576576024903660246004356004013560051b60043501011161057657610325612ad3565b60005b60043560040135811061033757005b600435600582901b018301356001600160a01b03811690036105765760018060a01b03838260051b6004350101351660005260039081835260406000209161038460ff82850154166128a1565b600283015461053257600192838101546104fd576005546000199460005b8281106104aa575b50506103ba6000198614156128e0565b80600019810111610495576001946103ee6103db61040c93600019016126e9565b888060a01b03915490871b1c16916126e9565b90919060018060a01b038084549260031b9316831b921b1916179055565b610414612921565b8054918101805460ff191690558161046a575b506040519081527febd480b822209fc7890cbdf5b21417b4aa0db6d18f10f47afc87c12d227b90e084848060a01b03878560051b6004350101351692a201610328565b6000905561048f81868460051b600435010135858060a01b03601a5460081c16612af4565b38610427565b86634e487b7160e01b60005260116004526000fd5b6104ba81989698979495976126e9565b905490881b1c6001600160a01b0390811660043560058b901b018b0135909116146104ed578101969496959392956103a2565b94969495939250389050806103aa565b60405162461bcd60e51b815260048101869052600e818801526d04c50207374616b65206e6f7420360941b6044820152606490fd5b60405162461bcd60e51b8152600481018590526018818701527f4c50207269736b2070657263656e74616765206e6f74203000000000000000006044820152606490fd5b600080fd5b3461057657600036600319011261057657610594612ad3565b600d805460ff60a01b19169055005b3461057657600036600319011261057657601a5460405160089190911c6001600160a01b03168152602090f35b34610576576020366003190112610576576105e9612669565b6105f1612ad3565b6000805160206133a083398151915280546001600160a01b0319166001600160a01b03928316908117909155600080516020613380833981519152549091167f38d16b8cac22d99fc7c124b9cd0de2d3fa1faef420bfe791d8c362d765e22700600080a3005b34610576576000366003190112610576576020601754604051908152f35b34610576576000366003190112610576576020600a54604051908152f35b34610576576000366003190112610576576000805160206133a0833981519152546040516001600160a01b039091168152602090f35b34610576576000366003190112610576576020601154604051908152f35b34610576576000366003190112610576576020600854604051908152f35b346105765760803660031901126105765761071e612669565b610726612695565b61072e61267f565b7ff0c57e16840df040f15088dc2f81fe391c3923bec73e23a9662efc9c229c6a009283549160ff8360401c16159267ffffffffffffffff811680159081610a3f575b6001149081610a35575b159081610a2c575b50610a1a5767ffffffffffffffff1981166001178655836109fb575b506107a7612f77565b6107af612f77565b6001600160a01b03938085169283156109e2576107cc8692612b9f565b6107d4612f77565b16936001600160601b0360a01b8581600054161760005560405180966320bba64360e21b82528160046020998a935afa801561099c5783916000916109a8575b5016816001541617600155601a549186610100600160a81b038560081b169485610100600160a81b0319861617601a5560046040518094819363313ce56760e01b8352165afa90811561099c57600091610963575b5061087d60ff610885921680601b55612ac5565b60643561288e565b93846006556105dc9182600e556101f460115562015180600755601654161760165560646017556019556affffffffffffffffffffff60a81b1617601a554260085560648102908082046064148115171561094d5781601855620186a08102906103e890831592848104831484171561094d57600a5502918204600a14171561094d57601c5561091157005b7fc7f505b2f371ae2175ee4913f4499e1f2633a7b5936321eed1cdaeb6115181d29168ff000000000000000019815416905560405160018152a1005b634e487b7160e01b600052601160045260246000fd5b90508681813d8311610995575b61097a81836126ab565b81010312610576575160ff811681036105765761087d610869565b503d610970565b6040513d6000823e3d90fd5b809250888092503d83116109db575b6109c181836126ab565b810103126105765751828116810361057657829089610814565b503d6109b7565b604051631e4fbdf760e01b815260006004820152602490fd5b68ffffffffffffffffff1916680100000000000000011785558561079e565b60405163f92ee8a960e01b8152600490fd5b90501587610782565b303b15915061077a565b859150610770565b34610576576000366003190112610576576014546040516001600160a01b039091168152602090f35b3461057657600036600319011261057657336000526002602052600160406000200180548015610ae5576000610ae3926040518381527fe372573e877677790970468683abedca6e4f2b10029faf042f8956e47c5df64960203392a255601a54339060081c6001600160a01b0316612af4565b005b60405162461bcd60e51b815260206004820152601760248201527f4e6f2077696e6e696e677320746f2077697468647261770000000000000000006044820152606490fd5b3461057657602036600319011261057657600435610b46612ad3565b600e548111610b5457601155005b60405162461bcd60e51b815260206004820152602660248201527f526566657272616c206270732073686f756c64206e6f7420657863656564206660448201526565652062707360d01b6064820152608490fd5b3461057657602036600319011261057657610bc1612ad3565b600435601855005b34610576576000366003190112610576576020600954604051908152f35b34610576576000366003190112610576576040516040810181811067ffffffffffffffff821117610c7c5760405260058152602090640352e302e360dc1b60208201526040518092602082528251908160208401526000935b828510610c63575050604092506000838284010152601f80199101168101030190f35b8481018201518686016040015293810193859350610c40565b634e487b7160e01b600052604160045260246000fd5b3461057657600036600319011261057657610ae3612965565b34610576576000366003190112610576576020601854604051908152f35b346105765760203660031901126105765760043560055481101561057657610cf26020916126e9565b905460405160039290921b1c6001600160a01b03168152f35b34610576576000366003190112610576576020600754604051908152f35b3461057657600036600319011261057657600080516020613380833981519152546040516001600160a01b039091168152602090f35b3461057657600036600319011261057657602060ff600d5460a81c166040519015158152f35b346105765760203660031901126105765760043580151580610e0e575b610dab90612822565b610dbd60ff600d5460a01c161561277a565b3360005260036020528060026040600020610dde60ff6003830154166128a1565b01556040519081527f5865997b702fe8b5b63c8a8aa1ffcd7b235564e48f1b0b27b9e2f4841356cc6260203392a2005b506064811115610da2565b34610576576000366003190112610576576020600b54604051908152f35b3461057657600036600319011261057657610e50612ad3565b6015548015610ef75760006015556014546001600160a01b03919082168015610eb257610e8392601a5460081c16612af4565b7f23f70d1b0e61e7e7db842184b58ff9ae4cc5b6ddd32bdefc9f936d5ea5a0bf146020601554604051908152a1005b60405162461bcd60e51b815260206004820152601c60248201527f50726f746f636f6c206665652061646472657373206e6f7420736574000000006044820152606490fd5b60405162461bcd60e51b815260206004820152601c60248201527f4e6f2070726f746f636f6c206665657320746f207769746864726177000000006044820152606490fd5b3461057657600036600319011261057657600054600154604051631711922960e31b81526001600160a01b0391821660048201529160209183916024918391165afa801561099c57602091600091610fa1575b506001600160801b0360405191168152f35b610fc19150823d8411610fc7575b610fb981836126ab565b8101906127c6565b82610f8f565b503d610faf565b34610576576000366003190112610576576000805160206133a083398151915254336001600160a01b039091160361100957610ae333612b9f565b60405163118cdaa760e01b8152336004820152602490fd5b346105765760203660031901126105765761103a612669565b611042612ad3565b601680546001600160a01b0319166001600160a01b0392909216919091179055005b34610576576000366003190112610576576020601254604051908152f35b346105765760203660031901126105765760043561109e612ad3565b611f40811161111e576011546101f4810180911161094d5781106110c157600e55005b60405162461bcd60e51b815260206004820152602f60248201527f526566657272616c206270732073686f756c64206265206c657373207468616e60448201526e020666565206270732062792035303608c1b6064820152608490fd5b60405162461bcd60e51b815260206004820152601e60248201527f466565206270732073686f756c64206e6f7420657863656564203830303000006044820152606490fd5b3461057657604036600319011261057657602460043581358115158061156f575b61118d90612822565b61119f60ff600d5460a01c161561277a565b801561151a5760018060a01b0380601a5460081c16604051906370a0823160e01b9182815230600482015260209485828981865afa91821561099c576000926114e9575b506111f2919230903390612b46565b8383601a5460081c1692876040518095819382523060048301525afa801561099c576000906114ba575b61122692506127e5565b936006549461123e86611239818461286e565b61288e565b95336000526003855260ff6003604060002001541615611425575b86106113bb5761126b8660095461276d565b600a541061137757859033600052600385528560406000209360038501805460ff811615611303575b5050506002846112a8856112b1975461276d565b815501556127e5565b806112ea575b50506040519283528201527fee1c1fc8c3cee482d2fd6bc7dac7f2282a10417bcd4a828918e2c563525cc3f060403392a2005b6112fc913390601a5460081c16612af4565b83806112b7565b60ff19166001179055600554929493509050600160401b821015611363575091856002889361135c61133e8760016112b199016005556126e9565b81546001600160a01b0360039290921b91821b19163390911b179055565b948a611294565b634e487b7160e01b60009081526041600452fd5b60405162461bcd60e51b815260048101859052601b818401527f4465706f7369742065786365656473204c5020706f6f6c2063617000000000006044820152606490fd5b60405162461bcd60e51b8152600481018590526039818401527f496e76616c6964206465706f73697420616d6f756e742c206d7573742062652060448201527f67726561746572207468616e207469636b6574207072696365000000000000006064820152608490fd5b600554601754111561147f576018548710156112595760405162461bcd60e51b815260048101869052601c818501527f4c50206465706f736974206c657373207468616e206d696e696d756d000000006044820152606490fd5b60405162461bcd60e51b8152600481018690526014818501527313585e081314081b1a5b5a5d081c995858da195960621b6044820152606490fd5b508382813d83116114e2575b6114d081836126ab565b8101031261057657611226915161121c565b503d6114c6565b91508582813d8311611513575b61150081836126ab565b81010312610576576111f29151916111e3565b503d6114f6565b60405162461bcd60e51b8152602060048201526028818501527f496e76616c6964206465706f73697420616d6f756e742c206d75737420626520604482015267706f73697469766560c01b6064820152608490fd5b506064821115611184565b3461057657600036600319011261057657611593612ad3565b6000805160206133a083398151915280546001600160a01b0319908116909155600080516020613380833981519152805491821690556000906001600160a01b03167f8be0079c531659141344cd1fd0a4f28419497f9722a3daafe3b4186f6b6457e08280a3005b346105765760203660031901126105765760043580151580910361057657611621612ad3565b60ff8019601a5416911617601a55600080f35b346105765760203660031901126105765761164d612669565b611655612ad3565b601480546001600160a01b0319166001600160a01b0392909216919091179055005b34610576576020366003190112610576576001600160a01b03611698612669565b1660005260136020526020604060002054604051908152f35b34610576576020366003190112610576576116ca612ad3565b600435601955005b34610576576000366003190112610576576020600c54604051908152f35b34610576576020366003190112610576576001600160a01b03611711612669565b1660005260026020526060604060002080549060ff600260018301549201541690604051928352602083015215156040820152f35b346105765760203660031901126105765761175f612ad3565b600435601755005b34610576576000366003190112610576577f00000000000000000000000000000000000000000000000000000000000000006001600160a01b031630036117d25760206040517f360894a13ba1a3210667c828492db98dca3e2076cc3735a920a3ca505d382bbc8152f35b60405163703e46dd60e11b8152600490fd5b346105765760603660031901126105765760043567ffffffffffffffff811680910361057657611812612695565b5060005460443591906001600160a01b0316801561198b57330361193a5760407f651c0245420dae86b3736a649329183412691f8b793c6f53958bcfca62a9f1d4918151908152836020820152a1600d549060ff8260a81c166118eb5760ff8260a01c16156118a65760ff60a81b19909116600160a81b17600d5561189690612c69565b600d805461ffff60a01b19169055005b60405162461bcd60e51b815260206004820152601c60248201527f4a61636b706f74206c6f636b206e6565647320746f20626520736574000000006044820152606490fd5b60405162461bcd60e51b815260206004820152602160248201527f456e74726f70792063616c6c6261636b206c6f636b20616c72656164792073656044820152601d60fa1b6064820152608490fd5b60405162461bcd60e51b815260206004820152602360248201527f4f6e6c7920456e74726f70792063616e2063616c6c20746869732066756e637460448201526234b7b760e91b6064820152608490fd5b60405162461bcd60e51b815260206004820152601760248201527f456e74726f70792061646472657373206e6f74207365740000000000000000006044820152606490fd5b34610576576060366003190112610576576119e9612669565b60249081356119f661267f565b90601a549260ff841615611e64578115611e0e57611a1c60ff600d5460a01c161561277a565b6001600160a01b0390811693338514611dd2576040516370a0823160e01b808252306004830152602094909260081c8416919085828a81865afa91821561099c57600092611da1575b50611a74919230903390612b46565b8383601a5460081c1692886040518095819382523060048301525afa801561099c57600090611d72575b611aa892506127e5565b928181168015908115611d68575b5015611d62575033925b60065490611ace828261286e565b918215611d0657611adf908361288e565b91600e5490612710918203828111611cf157611afa9161288e565b9784871696876000526002875260406000209160028301805460ff811615611c3d575b5050505091611bd2611bca7fd72c70202ab87b3549553b1d4ceb2a632c83cb96fa2dfe65c30282862fe11ade9796959385611b5c8d611bda985461276d565b9055611b6a8c600c5461276d565b600c55611bc181611b7d600e548861288e565b04918c158015918e91611c3557611b966011548a61288e565b045b611ba281866127e5565b92611baf86600f5461276d565b600f55611c06575b505060105461276d565b601055846127e5565b600b5461276d565b600b556127e5565b80611bed575b50506040519485523394a4005b611bff913390601a5460081c16612af4565b8580611be0565b611c2b9160005260138c526040600020611c2182825461276d565b905560125461276d565b6012558c8f611bb7565b506000611b98565b6004546019541115611cb45760ff1916600117905560045490600160401b82101561136357507fd72c70202ab87b3549553b1d4ceb2a632c83cb96fa2dfe65c30282862fe11ade97969593611bda9593611ca7611bd2946103ee856001611bca9701600455612736565b9395819597989950611b1d565b60405162461bcd60e51b8152600481018b90526016818501527513585e081d5cd95c881b1a5b5a5d081c995858da195960521b6044820152606490fd5b89634e487b7160e01b60005260116004526000fd5b60405162461bcd60e51b815260048101869052602f818a01527f496e73756666696369656e7420616d6f756e7420666f72206d696e696d756d2060448201526e7469636b657420707572636861736560881b6064820152608490fd5b92611ac0565b9050331487611ab6565b508382813d8311611d9a575b611d8881836126ab565b8101031261057657611aa89151611a9e565b503d611d7e565b91508582813d8311611dcb575b611db881836126ab565b8101031261057657611a74915191611a65565b503d611dae565b60405162461bcd60e51b8152602060048201526015818801527421b0b73737ba103932b332b9103cb7bab939b2b63360591b6044820152606490fd5b60405162461bcd60e51b8152602060048201526029818701527f496e76616c696420707572636861736520616d6f756e742c206d75737420626560448201526820706f73697469766560b81b6064820152608490fd5b60405162461bcd60e51b815260206004820152601e818701527f50757263686173696e67207469636b657473206e6f7420616c6c6f77656400006044820152606490fd5b604036600319011261057657611ebc612669565b602490813567ffffffffffffffff8111610576573660238201121561057657806004013591611eea836126cd565b611ef760405191826126ab565b83815260209384820193368783830101116105765781600092888893018737830101526001600160a01b037f000000000000000000000000000000000000000000000000000000000000000081163081149081156120a5575b506117d257611f5d612ad3565b6040516352d1902d60e01b8152908316948082600481895afa918291600093612075575b5050611f9f57604051634c9c8ce360e01b8152600481018690528690fd5b8490867f360894a13ba1a3210667c828492db98dca3e2076cc3735a920a3ca505d382bbc918281036120605750843b1561204a575080546001600160a01b03191682179055604051907fbc7cd75a20ee27fd9adebab32041f755214dbc6bffa90cc0225b39da2e5c2d3b600080a281511561203057506000610ae39381925190845af461202a6127f2565b9161331c565b925050503461203b57005b63b398979f60e01b8152600490fd5b604051634c9c8ce360e01b815260048101849052fd5b60405190632a87526960e21b82526004820152fd5b9080929350813d831161209e575b61208d81836126ab565b810103126105765751908780611f81565b503d612083565b9050817f360894a13ba1a3210667c828492db98dca3e2076cc3735a920a3ca505d382bbc5416141587611f50565b34610576576000366003190112610576576020601954604051908152f35b34610576576020366003190112610576576001600160a01b03612112612669565b1660005260036020526080604060002080549060018101549060ff6003600283015492015416916040519384526020840152604083015215156060820152f35b3461057657600036600319011261057657602060ff600d5460a01c166040519015158152f35b34610576576000366003190112610576576020601554604051908152f35b34610576576000366003190112610576576016546040516001600160a01b039091168152602090f35b34610576576000366003190112610576576020601b54604051908152f35b34610576576020366003190112610576576121f6612ad3565b600435601c55005b3461057657600036600319011261057657602060ff601a54166040519015158152f35b34610576576000366003190112610576576020601c54604051908152f35b6020806003193601126105765761225b6008546007549061276d565b421061245257600d5461227460ff8260a01c161561277a565b60ff60a01b1916600160a01b17600d55600054600154604051631711922960e31b81526001600160a01b03918216600482015290929182908290602490829087165afa801561099c576001600160801b0391600091612435575b5016918234106123dd57819083341161237d575b60448160005416916001541660405195869384926319cb825f60e01b8452600484015260043560248401525af1801561099c57612342575b337f826f6f38165cfdebf966078f0436bc3e414e3972837815771126691a3faa7daa600080a2005b81813d8311612376575b61235681836126ab565b81010312610576575167ffffffffffffffff81160361057657808061231a565b503d61234c565b9050600080808061238e87346127e5565b335af16123996127f2565b50156123a65781906122e2565b60405162461bcd60e51b815260048101839052600f60248201526e151c985b9cd9995c8819985a5b1959608a1b6044820152606490fd5b60405162461bcd60e51b815260048101839052602a60248201527f496e73756666696369656e742067617320746f2067656e65726174652072616e6044820152693237b690373ab6b132b960b11b6064820152608490fd5b61244c9150833d8511610fc757610fb981836126ab565b846122ce565b6084906040519062461bcd60e51b82526004820152602260248201527f4a61636b706f742063616e206f6e6c792062652072756e206f6e636520612064604482015261617960f01b6064820152fd5b34610576576000366003190112610576576020600f54604051908152f35b34610576576000366003190112610576576020600e54604051908152f35b3461057657600036600319011261057657600d546040516001600160a01b039091168152602090f35b346105765760203660031901126105765761251f612ad3565b600435600755005b34610576576000366003190112610576576020601054604051908152f35b3461057657600036600319011261057657336000526013602052604060002054156125c4573360005260136020526040600020600081549155612596813360018060a01b03601a5460081c16612af4565b6040519081527fd637c0db1643ba2f0205c1f2dd21d9f30bda04ed307d74527e6592f1f43f435d60203392a2005b60405162461bcd60e51b815260206004820152601c60248201527f4e6f20726566657272616c206665657320746f207769746864726177000000006044820152606490fd5b3461057657602036600319011261057657612622612ad3565b600435600655005b34610576576000366003190112610576576020600654604051908152f35b3461057657602036600319011261057657612661612ad3565b600435600a55005b600435906001600160a01b038216820361057657565b604435906001600160a01b038216820361057657565b602435906001600160a01b038216820361057657565b90601f8019910116810190811067ffffffffffffffff821117610c7c57604052565b67ffffffffffffffff8111610c7c57601f01601f191660200190565b6005548110156127205760056000527f036b6384b5eca791c62761152d0c79bb0604c104a5fb6f4eb0703f3154bb3db00190600090565b634e487b7160e01b600052603260045260246000fd5b6004548110156127205760046000527f8a35acfbc15ff81a39ae7d344fd709f28e8600b4aa8c65c6b64bfe7fe36bd19b0190600090565b9190820180921161094d57565b1561278157565b60405162461bcd60e51b815260206004820152601d60248201527f4a61636b706f742069732063757272656e746c792072756e6e696e67210000006044820152606490fd5b9081602091031261057657516001600160801b03811681036105765790565b9190820391821161094d57565b3d1561281d573d90612803826126cd565b9161281160405193846126ab565b82523d6000602084013e565b606090565b1561282957565b60405162461bcd60e51b815260206004820152601760248201527f496e76616c6964207269736b2070657263656e746167650000000000000000006044820152606490fd5b8115612878570490565b634e487b7160e01b600052601260045260246000fd5b8181029291811591840414171561094d57565b156128a857565b60405162461bcd60e51b815260206004820152601060248201526f4c50206973206e6f742061637469766560801b6044820152606490fd5b156128e757565b60405162461bcd60e51b81526020600482015260126024820152711314081a5b99195e081b9bdd08199bdd5b9960721b6044820152606490fd5b600554801561294f5760001901612937816126e9565b81549060018060a01b039060031b1b19169055600555565b634e487b7160e01b600052603160045260246000fd5b600033815260039060036020526040812091600383019182549261298b60ff85166128a1565b6001936001860154612a9257828654968160028201555560ff19169055600019928192600554935b848110612a5f575b5050506129cc6000198414156128e0565b6000198201918211612a4b57506103ee612a07612a1d936129ed86946126e9565b90546001600160a01b039460039290921b1c8416916126e9565b612a0f612921565b3390601a5460081c16612af4565b6040519081527febd480b822209fc7890cbdf5b21417b4aa0db6d18f10f47afc87c12d227b90e060203392a2565b634e487b7160e01b81526011600452602490fd5b612a68816126e9565b905490831b1c6001600160a01b03163314612a845782016129b3565b9294505050913880806129bb565b5050928392506002915001557fd71ab63e9df325a911adc1b0732eb4baca8d0218e79bcd112acec661f33fa962339180a2565b604d811161094d57600a0a90565b600080516020613380833981519152546001600160a01b0316330361100957565b60405163a9059cbb60e01b60208201526001600160a01b039092166024830152604480830193909352918152608081019167ffffffffffffffff831182841017610c7c57612b4492604052612c0d565b565b6040516323b872dd60e01b60208201526001600160a01b03928316602482015292909116604483015260648083019390935291815260a081019181831067ffffffffffffffff841117610c7c57612b4492604052612c0d565b6000805160206133a083398151915280546001600160a01b031990811690915560008051602061338083398151915280549182166001600160a01b0393841690811790915591167f8be0079c531659141344cd1fd0a4f28419497f9722a3daafe3b4186f6b6457e0600080a3565b906000602091828151910182855af11561099c576000513d612c6057506001600160a01b0381163b155b612c3e5750565b604051635274afe760e01b81526001600160a01b039091166004820152602490fd5b60011415612c37565b42600855600c5415612f1957612c7d6130da565b600b54600954908111612e0e5750612cb97f3208da215cdfa0c44cf3d81565b27f57d4c505bf1a48e40957e53aaf3ba2aa8291600c549061320b565b6001600160a01b03612d4d81612cce846132aa565b1692836001600160601b0360a01b600d541617600d55600b5493600052600260205260406000209360018501612d0582825461276d565b9055612d0f612fb8565b60085493600d5416945491604051958695869192608093969594919660a0840197845260018060a01b03166020840152604083015260608201520152565b0390a15b60005b600454811015612d995780612d6a600192612736565b838060a01b0391549060031b1c166000526002806020526040600020600081550160ff19815416905501612d54565b50600454600060045580612dca575b506000600b5560006009556000600c556000600f556000601255612b44613020565b60046000527f8a35acfbc15ff81a39ae7d344fd709f28e8600b4aa8c65c6b64bfe7fe36bd19b908101905b818110612e025750612da8565b60008155600101612df5565b6127109081810291818304149015171561094d577f3208da215cdfa0c44cf3d81565b27f57d4c505bf1a48e40957e53aaf3ba2aa8291612e54612e5a926006549061286e565b9061320b565b600c548111612ec1576001600160a01b03612eb981612e78846132aa565b1692836001600160601b0360a01b600d541617600d5560095493600052600260205260406000209360018501612eaf82825461276d565b9055612d0f613220565b0390a1612d51565b600d80546001600160a01b031916905560a090612edc613220565b612ee4612fb8565b60085490600180841b03600d5416906009549160405193845260208401526040830152606082015260006080820152a1612d51565b507f3208da215cdfa0c44cf3d81565b27f57d4c505bf1a48e40957e53aaf3ba2aa8260a0600954604051904282526000602083015260006040830152606082015260006080820152a1612f6a612fb8565b6000600955612b44613020565b60ff7ff0c57e16840df040f15088dc2f81fe391c3923bec73e23a9662efc9c229c6a005460401c1615612fa657565b604051631afcd79f60e31b8152600490fd5b6000805b60055481101561301c578082612fd36001936126e9565b905490600391858060a01b0391831b1c1682528060205260ff604083209182015416613002575b505001612fbc565b838101906130128254825461276d565b9055558238612ffa565b5050565b6000805b60055481101561301c578061303a6001926126e9565b905490600391848060a01b0391831b1c169081855260209080825260409060ff8288209182015416613071575b5050505001613024565b7f14d1e9852fb8075cc7cf65ab53df7e7110c775fdc60cc33026d2871bd8bd8a91928154906130c560646130a960028601548561288e565b048093818b87015560096130be83825461276d565b90556127e5565b8093558351928352820152a238808080613067565b60098054156131f2576014546001600160a01b03919082161515806131e4575b6131bd575b60009160005b6005548110156131a95781613119826126e9565b919054600392831b1c166000528060205260ff60406000209182015416613144575b50600101613105565b6131a2906001929561318f60105461318961318361317b613171601b549461316b86612ac5565b9061288e565b898801549061288e565b8a549061286e565b91612ac5565b9061286e565b9161319b83825461276d565b905561276d565b939061313b565b5050506131b8906010546127e5565b601055565b6131dc6010546131d1600a820480926127e5565b60105560155461276d565b6015556130ff565b50601054601c5411156130fa565b50613201601054600b5461276d565b600b556000601055565b811561287857066001810180911161094d5790565b60098054156132a7576000805b6005548110156132a257806132436001926126e9565b905490600391848060a01b0391831b1c1684528060205260ff604085209182015416613271575b500161322d565b61329a613293600b5461318961318361317b613171601b549461316b86612ac5565b825461276d565b90553861326a565b505050565b50565b60008091600454925b8381106132ce5750506016546001600160a01b031692915050565b6133026132da82612736565b905460039190911b1c6001600160a01b0316600081815260026020526040902054909461276d565b928383111561331457506001016132b3565b935050505090565b90613343575080511561333157805190602001fd5b60405163d6bda27560e01b8152600490fd5b81511580613376575b613354575090565b604051639996b31560e01b81526001600160a01b039091166004820152602490fd5b50803b1561334c56fe9016d09d72d40fdae2fd8ceac6b6234c7706214fd39c1cd1e609a0528c199300237e158222e3e6968b72b9db0d8043aacf074ad9f650f0d1606b4d82ee432c00a2646970667358221220c80869c4bbbfb9813d968e2de4afd702d5aaa161f33d8bebcb1d518212cd88ca64736f6c63430008170033",
  "devdoc": {
    "errors": {
      "AddressEmptyCode(address)": [
        {
          "details": "There's no code at `target` (it is not a contract)."
        }
      ],
      "ERC1967InvalidImplementation(address)": [
        {
          "details": "The `implementation` of the proxy is invalid."
        }
      ],
      "ERC1967NonPayable()": [
        {
          "details": "An upgrade function sees `msg.value > 0` that may be lost."
        }
      ],
      "FailedCall()": [
        {
          "details": "A call to an address target failed. The target may have reverted."
        }
      ],
      "InvalidInitialization()": [
        {
          "details": "The contract is already initialized."
        }
      ],
      "NotInitializing()": [
        {
          "details": "The contract is not initializing."
        }
      ],
      "OwnableInvalidOwner(address)": [
        {
          "details": "The owner is not a valid owner account. (eg. `address(0)`)"
        }
      ],
      "OwnableUnauthorizedAccount(address)": [
        {
          "details": "The caller account is not authorized to perform an operation."
        }
      ],
      "SafeERC20FailedOperation(address)": [
        {
          "details": "An operation with an ERC-20 token failed."
        }
      ],
      "UUPSUnauthorizedCallContext()": [
        {
          "details": "The call is from an unauthorized context."
        }
      ],
      "UUPSUnsupportedProxiableUUID(bytes32)": [
        {
          "details": "The storage `slot` is unsupported as a UUID."
        }
      ]
    },
    "events": {
      "Initialized(uint64)": {
        "details": "Triggered when the contract has been initialized or reinitialized."
      },
      "Upgraded(address)": {
        "details": "Emitted when the implementation is upgraded."
      }
    },
    "kind": "dev",
    "methods": {
      "acceptOwnership()": {
        "details": "The new owner accepts the ownership transfer."
      },
      "constructor": {
        "custom:oz-upgrades-unsafe-allow": "constructor"
      },
      "initialize(address,address,address,uint256)": {
        "details": "Initializes the contract with required parameters",
        "params": {
          "_entropyAddress": "Address of the Entropy contract for randomness",
          "_initialOwnerAddress": "Initial owner address (should be different from deployer)",
          "_ticketPrice": "Price of a single ticket (will be multiplied by token decimals)",
          "_token": "Address of the ERC20 token to use for tickets and rewards"
        }
      },
      "owner()": {
        "details": "Returns the address of the current owner."
      },
      "pendingOwner()": {
        "details": "Returns the address of the pending owner."
      },
      "proxiableUUID()": {
        "details": "Implementation of the ERC-1822 {proxiableUUID} function. This returns the storage slot used by the implementation. It is used to validate the implementation's compatibility when performing an upgrade. IMPORTANT: A proxy pointing at a proxiable contract should not be considered proxiable itself, because this risks bricking a proxy that upgrades to it, by delegating to itself until out of gas. Thus it is critical that this function revert if invoked through a proxy. This is guaranteed by the `notDelegated` modifier."
      },
      "renounceOwnership()": {
        "details": "Leaves the contract without owner. It will not be possible to call `onlyOwner` functions. Can only be called by the current owner. NOTE: Renouncing ownership will leave the contract without an owner, thereby disabling any functionality that is only available to the owner."
      },
      "transferOwnership(address)": {
        "details": "Starts the ownership transfer of the contract to a new account. Replaces the pending transfer if there is one. Can only be called by the current owner. Setting `newOwner` to the zero address is allowed; this can be used to cancel an initiated ownership transfer."
      },
      "upgradeToAndCall(address,bytes)": {
        "custom:oz-upgrades-unsafe-allow-reachable": "delegatecall",
        "details": "Upgrade the implementation of the proxy to `newImplementation`, and subsequently execute the function call encoded in `data`. Calls {_authorizeUpgrade}. Emits an {Upgraded} event."
      }
    },
    "version": 1
  },
  "userdoc": {
    "kind": "user",
    "methods": {},
    "version": 1
  },
  "storageLayout": {
    "storage": [
      {
        "astId": 6518,
        "contract": "contracts/BaseJackpot.sol:BaseJackpot",
        "label": "entropy",
        "offset": 0,
        "slot": "0",
        "type": "t_contract(IEntropy)10131"
      },
      {
        "astId": 6520,
        "contract": "contracts/BaseJackpot.sol:BaseJackpot",
        "label": "entropyProvider",
        "offset": 0,
        "slot": "1",
        "type": "t_address"
      },
      {
        "astId": 6534,
        "contract": "contracts/BaseJackpot.sol:BaseJackpot",
        "label": "usersInfo",
        "offset": 0,
        "slot": "2",
        "type": "t_mapping(t_address,t_struct(User)6708_storage)"
      },
      {
        "astId": 6539,
        "contract": "contracts/BaseJackpot.sol:BaseJackpot",
        "label": "lpsInfo",
        "offset": 0,
        "slot": "3",
        "type": "t_mapping(t_address,t_struct(LP)6529_storage)"
      },
      {
        "astId": 6542,
        "contract": "contracts/BaseJackpot.sol:BaseJackpot",
        "label": "activeUserAddresses",
        "offset": 0,
        "slot": "4",
        "type": "t_array(t_address)dyn_storage"
      },
      {
        "astId": 6545,
        "contract": "contracts/BaseJackpot.sol:BaseJackpot",
        "label": "activeLpAddresses",
        "offset": 0,
        "slot": "5",
        "type": "t_array(t_address)dyn_storage"
      },
      {
        "astId": 6547,
        "contract": "contracts/BaseJackpot.sol:BaseJackpot",
        "label": "ticketPrice",
        "offset": 0,
        "slot": "6",
        "type": "t_uint256"
      },
      {
        "astId": 6549,
        "contract": "contracts/BaseJackpot.sol:BaseJackpot",
        "label": "roundDurationInSeconds",
        "offset": 0,
        "slot": "7",
        "type": "t_uint256"
      },
      {
        "astId": 6551,
        "contract": "contracts/BaseJackpot.sol:BaseJackpot",
        "label": "lastJackpotEndTime",
        "offset": 0,
        "slot": "8",
        "type": "t_uint256"
      },
      {
        "astId": 6553,
        "contract": "contracts/BaseJackpot.sol:BaseJackpot",
        "label": "lpPoolTotal",
        "offset": 0,
        "slot": "9",
        "type": "t_uint256"
      },
      {
        "astId": 6555,
        "contract": "contracts/BaseJackpot.sol:BaseJackpot",
        "label": "lpPoolCap",
        "offset": 0,
        "slot": "10",
        "type": "t_uint256"
      },
      {
        "astId": 6557,
        "contract": "contracts/BaseJackpot.sol:BaseJackpot",
        "label": "userPoolTotal",
        "offset": 0,
        "slot": "11",
        "type": "t_uint256"
      },
      {
        "astId": 6559,
        "contract": "contracts/BaseJackpot.sol:BaseJackpot",
        "label": "ticketCountTotalBps",
        "offset": 0,
        "slot": "12",
        "type": "t_uint256"
      },
      {
        "astId": 6561,
        "contract": "contracts/BaseJackpot.sol:BaseJackpot",
        "label": "lastWinnerAddress",
        "offset": 0,
        "slot": "13",
        "type": "t_address"
      },
      {
        "astId": 6563,
        "contract": "contracts/BaseJackpot.sol:BaseJackpot",
        "label": "jackpotLock",
        "offset": 20,
        "slot": "13",
        "type": "t_bool"
      },
      {
        "astId": 6565,
        "contract": "contracts/BaseJackpot.sol:BaseJackpot",
        "label": "entropyCallbackLock",
        "offset": 21,
        "slot": "13",
        "type": "t_bool"
      },
      {
        "astId": 6567,
        "contract": "contracts/BaseJackpot.sol:BaseJackpot",
        "label": "feeBps",
        "offset": 0,
        "slot": "14",
        "type": "t_uint256"
      },
      {
        "astId": 6569,
        "contract": "contracts/BaseJackpot.sol:BaseJackpot",
        "label": "allFeesTotal",
        "offset": 0,
        "slot": "15",
        "type": "t_uint256"
      },
      {
        "astId": 6571,
        "contract": "contracts/BaseJackpot.sol:BaseJackpot",
        "label": "lpFeesTotal",
        "offset": 0,
        "slot": "16",
        "type": "t_uint256"
      },
      {
        "astId": 6573,
        "contract": "contracts/BaseJackpot.sol:BaseJackpot",
        "label": "referralFeeBps",
        "offset": 0,
        "slot": "17",
        "type": "t_uint256"
      },
      {
        "astId": 6575,
        "contract": "contracts/BaseJackpot.sol:BaseJackpot",
        "label": "referralFeesTotal",
        "offset": 0,
        "slot": "18",
        "type": "t_uint256"
      },
      {
        "astId": 6579,
        "contract": "contracts/BaseJackpot.sol:BaseJackpot",
        "label": "referralFeesClaimable",
        "offset": 0,
        "slot": "19",
        "type": "t_mapping(t_address,t_uint256)"
      },
      {
        "astId": 6581,
        "contract": "contracts/BaseJackpot.sol:BaseJackpot",
        "label": "protocolFeeAddress",
        "offset": 0,
        "slot": "20",
        "type": "t_address"
      },
      {
        "astId": 6583,
        "contract": "contracts/BaseJackpot.sol:BaseJackpot",
        "label": "protocolFeeClaimable",
        "offset": 0,
        "slot": "21",
        "type": "t_uint256"
      },
      {
        "astId": 6585,
        "contract": "contracts/BaseJackpot.sol:BaseJackpot",
        "label": "fallbackWinner",
        "offset": 0,
        "slot": "22",
        "type": "t_address"
      },
      {
        "astId": 6587,
        "contract": "contracts/BaseJackpot.sol:BaseJackpot",
        "label": "lpLimit",
        "offset": 0,
        "slot": "23",
        "type": "t_uint256"
      },
      {
        "astId": 6589,
        "contract": "contracts/BaseJackpot.sol:BaseJackpot",
        "label": "minLpDeposit",
        "offset": 0,
        "slot": "24",
        "type": "t_uint256"
      },
      {
        "astId": 6591,
        "contract": "contracts/BaseJackpot.sol:BaseJackpot",
        "label": "userLimit",
        "offset": 0,
        "slot": "25",
        "type": "t_uint256"
      },
      {
        "astId": 6593,
        "contract": "contracts/BaseJackpot.sol:BaseJackpot",
        "label": "allowPurchasing",
        "offset": 0,
        "slot": "26",
        "type": "t_bool"
      },
      {
        "astId": 6596,
        "contract": "contracts/BaseJackpot.sol:BaseJackpot",
        "label": "token",
        "offset": 1,
        "slot": "26",
        "type": "t_contract(IERC20)2116"
      },
      {
        "astId": 6598,
        "contract": "contracts/BaseJackpot.sol:BaseJackpot",
        "label": "tokenDecimals",
        "offset": 0,
        "slot": "27",
        "type": "t_uint256"
      },
      {
        "astId": 6600,
        "contract": "contracts/BaseJackpot.sol:BaseJackpot",
        "label": "protocolFeeThreshold",
        "offset": 0,
        "slot": "28",
        "type": "t_uint256"
      },
      {
        "astId": 6604,
        "contract": "contracts/BaseJackpot.sol:BaseJackpot",
        "label": "__gap",
        "offset": 0,
        "slot": "29",
        "type": "t_array(t_uint256)50_storage"
      }
    ],
    "types": {
      "t_address": {
        "encoding": "inplace",
        "label": "address",
        "numberOfBytes": "20"
      },
      "t_array(t_address)dyn_storage": {
        "base": "t_address",
        "encoding": "dynamic_array",
        "label": "address[]",
        "numberOfBytes": "32"
      },
      "t_array(t_uint256)50_storage": {
        "base": "t_uint256",
        "encoding": "inplace",
        "label": "uint256[50]",
        "numberOfBytes": "1600"
      },
      "t_bool": {
        "encoding": "inplace",
        "label": "bool",
        "numberOfBytes": "1"
      },
      "t_contract(IERC20)2116": {
        "encoding": "inplace",
        "label": "contract IERC20",
        "numberOfBytes": "20"
      },
      "t_contract(IEntropy)10131": {
        "encoding": "inplace",
        "label": "contract IEntropy",
        "numberOfBytes": "20"
      },
      "t_mapping(t_address,t_struct(LP)6529_storage)": {
        "encoding": "mapping",
        "key": "t_address",
        "label": "mapping(address => struct BaseJackpot.LP)",
        "numberOfBytes": "32",
        "value": "t_struct(LP)6529_storage"
      },
      "t_mapping(t_address,t_struct(User)6708_storage)": {
        "encoding": "mapping",
        "key": "t_address",
        "label": "mapping(address => struct BaseJackpot.User)",
        "numberOfBytes": "32",
        "value": "t_struct(User)6708_storage"
      },
      "t_mapping(t_address,t_uint256)": {
        "encoding": "mapping",
        "key": "t_address",
        "label": "mapping(address => uint256)",
        "numberOfBytes": "32",
        "value": "t_uint256"
      },
      "t_struct(LP)6529_storage": {
        "encoding": "inplace",
        "label": "struct BaseJackpot.LP",
        "members": [
          {
            "astId": 6522,
            "contract": "contracts/BaseJackpot.sol:BaseJackpot",
            "label": "principal",
            "offset": 0,
            "slot": "0",
            "type": "t_uint256"
          },
          {
            "astId": 6524,
            "contract": "contracts/BaseJackpot.sol:BaseJackpot",
            "label": "stake",
            "offset": 0,
            "slot": "1",
            "type": "t_uint256"
          },
          {
            "astId": 6526,
            "contract": "contracts/BaseJackpot.sol:BaseJackpot",
            "label": "riskPercentage",
            "offset": 0,
            "slot": "2",
            "type": "t_uint256"
          },
          {
            "astId": 6528,
            "contract": "contracts/BaseJackpot.sol:BaseJackpot",
            "label": "active",
            "offset": 0,
            "slot": "3",
            "type": "t_bool"
          }
        ],
        "numberOfBytes": "128"
      },
      "t_struct(User)6708_storage": {
        "encoding": "inplace",
        "label": "struct BaseJackpot.User",
        "members": [
          {
            "astId": 6703,
            "contract": "contracts/BaseJackpot.sol:BaseJackpot",
            "label": "ticketsPurchasedTotalBps",
            "offset": 0,
            "slot": "0",
            "type": "t_uint256"
          },
          {
            "astId": 6705,
            "contract": "contracts/BaseJackpot.sol:BaseJackpot",
            "label": "winningsClaimable",
            "offset": 0,
            "slot": "1",
            "type": "t_uint256"
          },
          {
            "astId": 6707,
            "contract": "contracts/BaseJackpot.sol:BaseJackpot",
            "label": "active",
            "offset": 0,
            "slot": "2",
            "type": "t_bool"
          }
        ],
        "numberOfBytes": "96"
      },
      "t_uint256": {
        "encoding": "inplace",
        "label": "uint256",
        "numberOfBytes": "32"
      }
    }
  }
}